:100000000C9445030C947D030C947D030C947D03A8
:100010000C947D030C947D030C947D030C947D0360
:100020000C947D030C947D030C9461290C94332A69
:100030000C9469240C947D030C947D030C947D0333
:100040000C947D030C947D030C947D030C947D0330
:100050000C947D030C94F2240C947D030C947D038A
:100060000C947D030C947D030C947D030C947D0310
:100070000C947D030C947D030C947D030C947D0300
:100080000C947D030C947D030C947D030C947D03F0
:100090000C947D030C947D030C947D030C947D03E0
:1000A0000C947D030C947D030C947D03C606C60658
:1000B000F206F20668078607860886088B0701089D
:1000C00012081208791E7C1E811E881E8D1E921E2B
:1000D000971E9C1EA11EA61EAB1EB01EB21EB51EF4
:1000E000B81EBB1EBE1EC11EC31EC61ECA1E3321A5
:1000F000A5213B21052109213F210C2142214D2130
:1001000017219B211B2151211F2155217F212321B3
:100110005921892129215F2169211021462113219B
:1001200049212E2164217521952197210121372113
:10013000AE2179227F226D22732285228B22912289
:100140009B2AC22ABA2BC22ABA2B0E2B312BBA2BCE
:10015000882B972BE000E300E20051005000E40000
:100160002C002152E600E10000001D001B000600EB
:1001700019000500110010003900040016000700E6
:1001800009000A000B000D000E002B0014001A00DD
:100190000800150017001C0018000C0035001E0098
:1001A0001F00200021002200230024002500290038
:1001B0003A003B003C003D003E003F004000410053
:1001C0005800630062004E00560000004F0000001F
:1001D000000000005B005A005200E50038005900A2
:1001E0003700360057005E005D0000002800340034
:1001F0005C0033000F00000061006000310030003F
:100200002F005F001300120055005400530000003F
:100210002E002D002A00270026004B004D004A002A
:100220004800450044004C00430042000100E70044
:100230000100DA00DB000100010001000100010003
:1002400000000100010001000100010001000100A7
:100250000100010001000100010001000100010096
:1002600001000100227821782A78297824782378DF
:100270002678257820782B782C782D782E782F7872
:10028000307831783278007CBE00BD000100027801
:1002900003780478AC00AE00010001000100010009
:1002A00001000000DC000000000000000100CE00A2
:1002B000D900010001000100010001000100D0008F
:1002C000D300000001000100CF0001000100000088
:1002D000D300CD00010001000100D100277828786B
:1002E00001008900B20000000100010001000100CE
:1002F00033780100B00047004604A900AA00490075
:10030000A800AB001E0F0500047F3F1F6432146479
:100310003214783C1E1E140A052223252628292A79
:100320002C2D2F3032333536383A3B3D3E40424358
:100330004547494A4C4E5051535557595A5C5E6097
:1003400062646668696B6D6F71737577797B7D7FA9
:1003500081838587898A8C8E90929496989A9C9EA8
:100360009FA1A3A5A7A8AAACAEAFB1B3B4B6B8B9C4
:10037000BBBCBEBFC1C2C3C5C6C7C9CACBCCCDCE2C
:10038000D0D1D2D2D3D4D5D6D7D7D8D9D9DADADB0F
:10039000DBDBDCDCDCDCDCDDDDDDDDDCDCDCDCDC9B
:1003A000DBDBDBDADAD9D9D8D7D7D6D5D4D3D2D2DA
:1003B000D1D0CECDCCCBCAC9C7C6C5C3C2C1BFBEC2
:1003C000BCBBB9B8B6B4B3B1AFAEACAAA8A7A5A32D
:1003D000A19F9E9C9A98969492908E8C8A898785EC
:1003E00083817F7D7B79777573716F6D6B696866CB
:1003F0006462605E5C5A5957555351504E4C4A499D
:1004000047454342403E3D3B3A3836353332302F44
:100410002D2C2A292826252322FFAA7F55400001BA
:1004200001010101010101010202020202020202B4
:100430000203030303030303030404040404040486
:10044000050505050506060606060707070707084A
:10045000080808090909090A0A0A0B0B0B0C0C0CFD
:100460000D0D0D0E0E0E0F0F0F1010111111121297
:1004700013131414151516161717181819191A1A14
:100480001B1B1C1D1D1E1E1F202021222223242475
:10049000252626272829292A2B2C2D2D2E2F3031B1
:1004A0003232333435363738393A3B3C3D3E3F40C3
:1004B0004142434445464748494A4C4D4E4F5051AE
:1004C0005354555658595A5B5D5E5F616264656668
:1004D00068696B6C6D6F7072737577787A7B7D7EEF
:1004E0008082838587888A8C8E8F91939596989A3F
:1004F0009C9EA0A2A3A5A7A9ABADAFB1B3B5B7BA57
:10050000BCBEC0C2C4C6C9CBCDCFD1D4D6D8DBDD2A
:10051000DFE2E4E7E9EBEEF0F3F5F8FAFDFF1203B2
:100520004D0065006C006F006400790039003600F2
:1005300000000A0359004D0044004B000000040372
:10054000090409023B00020100A0FA0904000001AD
:100550000301010009211101000122440007058166
:100560000308000109040100010300000009211132
:1005700001000122B60007058203200001120100DC
:1005800002000000084D59964D01000102000105CE
:10059000010902A10185020901A10005091901292A
:1005A000081500250195087501810205010930092A
:1005B000311581257F950275088106093815812539
:1005C0007F950175088106050C0A38021581257F83
:1005D000950175088106C0C005010980A101850348
:1005E00019012AB700150126B70095017510810081
:1005F000C0050C0901A101850419012AA0021501F9
:1006000026A002950175108100C005010906A1010F
:100610008506050719E029E71500250195087501EC
:1006200081020507190029EF1500250195F07501D4
:1006300081020508190129059505750191029501A9
:1006400075039101C005010906A101050719E029FB
:10065000E71500250195087501810295017508814E
:10066000010507190029FF150026FF0095067508EA
:100670008100050819012905150025019505750159
:100680009102950175039101C00011241FBECFEFA7
:10069000DAE0DEBFCDBF04B603FE18C08091F303DD
:1006A0009091F403A091F503B091F6038730904B3D
:1006B000A740B04B59F41092F3031092F403109238
:1006C000F5031092F603E0E0F8E3099511E0A0E0ED
:1006D000B1E0E2EFFBE502C005900D92AC3DB10741
:1006E000D9F723E0ACEDB1E001C01D92A33FB20702
:1006F000E1F70E945F140C94F72D0C9400008230F7
:10070000B0F46C30A0F4493090F49CE6899FF0017D
:10071000112489E0689FE00DF11D1124E40FF11D03
:10072000EE0FFF1FEC5AFE4F85919491089581E0E2
:1007300090E008950E947F03089581E0089581E08C
:1007400008950E949F0308950E94A10308950E94A6
:100750009F03089508950E94AA030895A6E0B0E0BB
:10076000E4EBF3E00C94A22C49835A839E833091EE
:10077000E30189819A81311115C03E81332359F0FB
:10078000222349F00E944B0A182F682F89819A81F1
:100790000E94270A03C00E94390A182F69817A81B2
:1007A000812F04C00E944B0A69817A810E94A611A0
:1007B0002696E3E00C94BE2CFC01262F408151814B
:1007C00062817381848195810E94AE030895CF93E5
:1007D000DF93EC0161E00E94DC03BE010E94A403F0
:1007E000DF91CF910895CF93DF93EC0160E00E94F9
:1007F000DC03BE010E94AB03DF91CF910895089501
:100800000E94FE080E94FF032FEF84E39CE021502A
:1008100080409040E1F700C0000008950E9400046D
:100820000E94182508950E9400040E943C25089506
:100830000F931F93CF93DF93EC018B010E94A703CB
:10084000882309F450C0B801CE010E94CE1F88232E
:1008500009F449C0B801CE010E946122882309F43D
:1008600042C0B801CE010E94DD208823E1F1B80129
:10087000CE010E94C7218823B1F1B801CE010E94A8
:10088000631E882381F1F8018581882341F1C330FB
:100890008CE7D807D1F040F4C115FCE7DF0791F0F1
:1008A000C130DC47A1F01BC0CB35ECE7DE07A9F077
:1008B000CC35FCE7DF0771F0CA35DC4781F40E94D4
:1008C000E50E0DC00E940E040EC00E94ED0E0E94A7
:1008D000130409C00E94DB0E02C00E94E90EC80189
:1008E0000E949D0301C080E0DF91CF911F910F9185
:1008F0000895CF93DF93EC0161E00E94DC03BE0119
:100900000E941804DF91CF9108950E94412480E055
:100910000E94AD1F0E94C70408950E94E91E0E9414
:10092000CB040E944A240895089581E0089580959B
:1009300080FF02C0469A01C0469881FF02C0479AD4
:1009400001C0479882FF02C02D9A08952D980895FE
:10095000CF93DF93D82F0E949504C82F882319F0D6
:100960008D2F0E9497048C2FDF91CF9108953E9A8E
:10097000469A3F9A479A259A2D9A0895CF93C82F61
:100980000E9494048C2F0E94A804CF91089580E0C7
:100990000E94BE0408950E94A9220E94BE040895E8
:1009A000CF930E94A922C82F8091DE01C81779F049
:1009B000C093DE010E94D7246093DF017093E001B1
:1009C0008093E1019093E2018C2F0E94BE04CF91AD
:1009D0000895ADE0B0E0EFEEF4E00C94A12C488770
:1009E00059876A877B878C879D8791110E94D60DD6
:1009F0008E010F5F1F4F87E0F80111928A95E9F78A
:100A000086E0FE013896D80101900D928A95E1F7B3
:100A10008091720382FF0CC00E94990D882319F007
:100A200082E00E94AF0E0E94800D81110E94100E84
:100A30008D8181110AC029813A814B815C816D8150
:100A40007E818F810E94FB0C05C0C8010E94E703D4
:100A50008111F1CF2D96E4E00C94BD2CFC01248192
:100A6000213021F4808191810E947D0A08956623BE
:100A700019F00E94F71402C00E9452150E94C91575
:100A80000895CF93882309F4A4C0C82F8238C1F4F5
:100A90000E94B62281FD9DC069E38091040190917E
:100AA00005010E94C1230E941E0E2FEF87EE93E0E6
:100AB000215080409040E1F700C0000069E319C078
:100AC000833801F50E94B62280FD83C063E58091E2
:100AD0000401909105010E94C1230E941E0E2FEF78
:100AE00081EE94E0215080409040E1F700C000008A
:100AF00063E580910401909105010E94CF230E943B
:100B00001E0E67C08438C1F40E94B62282FD61C007
:100B100067E480910401909105010E94C1230E9425
:100B20001E0E2FEF81EE94E0215080409040E1F7BF
:100B300000C0000067E4DDCF8CEF8C0F813AD0F469
:100B40006C2F80910401909105010E94412388231C
:100B500049F06C2F80910401909105010E94CF23F0
:100B60000E941E0E6C2F80910401909105010E943D
:100B7000C123C5CF80E28C0F883048F4C77081E074
:100B800001C0880FCA95EAF70E94B90DB8CFEBE50E
:100B9000EC0FE33040F4F0E0E05AFE4F808190E04B
:100BA0000E94E12216C0E8E5EC0FEB3150F4F0E0D2
:100BB000EE0FFF1FE65DFE4F808191810E940623AC
:100BC00008C083E38C0F833120F461E08C2F0E94F6
:100BD0003705CF910895882309F468C0823879F4E5
:100BE0000E94B62281FF62C069E380910401909166
:100BF00005010E94C1230E941E0E69E310C08338C4
:100C0000B9F40E94B62280FF51C063E580910401CF
:100C1000909105010E94C1230E941E0E63E5809100
:100C20000401909105010E94CF230E941E0E089599
:100C3000843879F40E94B62282FF38C067E480913C
:100C40000401909105010E94C1230E941E0E67E4D9
:100C5000E6CF9CEF980F913A10F4682FE0CF90E226
:100C6000980F983050F4877091E001C0990F8A95E1
:100C7000EAF7892F0E94BF0DD8CF9BE5980F9330DC
:100C800028F480E090E00E94E122089598E5980F12
:100C90009B3128F480E090E00E940623089593E3BE
:100CA000980F933118F460E00E94370508951F9360
:100CB000CF93DF93182FEB010E944105209741F05D
:100CC0008FE99FE00197F1F700C000002197F6CF70
:100CD000812F0E94EB05DF91CF911F9108958933F9
:100CE00019F060E070E002C060E570E00E94570615
:100CF0000895882321F00E94B90D0E941E0E0895C8
:100D0000882321F00E94BF0D0E941E0E0895A0E0CE
:100D1000B0E0EDE8F6E00C949D2C7C01D62FC72FB7
:100D2000FC011581068102950F700E94AF0D88238A
:100D3000E9F01123D9F08C2F807F803451F080E2CC
:100D40008D0F883098F0011104C08C2F807E803286
:100D500069F08091720382FF09C082E00E94AF0EA9
:100D60000E94AF0D91E0D82ED92601C0D12CCC2EF7
:100D7000C2948FE0C8228C2D90E08C30910508F051
:100D8000C5C1FC01EA5AFF4F0C945C2C8C2F807F6C
:100D9000CF70882311F0C295C07F112399F0CC2326
:100DA00009F4A0C180E28D0F883010F0D11104C089
:100DB0008C2F0E94B90D03C08C2F0E94C90D0E9478
:100DC0001E0E90C18D2F0E94EB05CC2309F49EC10D
:100DD00080E28D0F883040F1DD2331F18C2F0E94AD
:100DE000CF0D25C08C2F807FCF70803211F0C2953F
:100DF000C07FDD2321F0D13009F447C050C080917D
:100E0000720382FD17C0112349F0CC2329F08C2FE7
:100E10000E94B90D0E941E0E80E065C180E00E9414
:100E2000EB05CC2309F472C18C2F0E94BF0D0E94E8
:100E30001E0E6CC11123A9F00023A9F1013021F489
:100E40008C2F0E94E00D62C1053009F05FC18C2F2C
:100E50000E9479068C2F0E94F70D8C2F0E946C0E39
:100E600055C1002341F0013009F050C10E94B60D78
:100E70008C2309F44BC18C2F0E9480068C2F0E947A
:100E8000F70D8C2F0E94780E41C1112321F00630FE
:100E900008F03CC108C0053008F038C115C0112366
:100EA00031F001111FC18C2F0E9479062FC1002340
:100EB00059F0D93309F027C1FFEF27EE83E0F15055
:100EC00020408040E1F71DC18C2F0E9480061EC18A
:100ED0008C2F86958695837019F0813061F016C14C
:100EE000112321F08D2F9C2F937002C080E090E0A1
:100EF0000E94E12213C1112321F08D2F9C2F9370AA
:100F000002C080E090E00E94062308C1612F8D2F6F
:100F10000E94370503C18C2F8370B1F51111FAC0FF
:100F20004D2F429546954770440F440F8D2F8F707B
:100F300090E09C01042E02C0220F331F0A94E2F7B6
:100F4000D4FF0AC08FE090E002C0880F991F4A9535
:100F5000E2F78095909502C080E090E0C695C69536
:100F6000C370822B932BC23049F058F4C13019F072
:100F70000E945A09CFC00E945109CCC00E94630947
:100F8000C9C00E944E09C6C0112319F08C2F817070
:100F900001C08695882309F4BDC04D2F4295469522
:100FA0004770440F440F8D2F8F7090E09C01042EEA
:100FB00002C0220F331F0A94E2F7D4FF0AC08FE069
:100FC00090E002C0880F991F4A95E2F780959095AE
:100FD00002C080E090E0C695C695C370822B932B2B
:100FE000C23049F058F4C13019F00E94C20992C0D1
:100FF0000E94B9098FC00E94CB098CC00E946F0962
:1010000089C0CF70112339F08C2F0E9487098D2F52
:101010000E9479067FC08D2F0E9480068C2F0E942F
:10102000970978C0D23F21F128F4D03F41F0D13F59
:10103000C1F054C0D33F19F1D43F79F04FC0112310
:1010400041F0053008F062C08C2F8F710E94A90911
:101050005DC0063008F05AC0F7CF8091720382FD60
:1010600018C0112339F08C2F8F710E9487094EC050
:101070001123C9F38C2F8F710E94970947C0112348
:1010800029F08C2F8F710E947B0940C00E94760945
:101090003DC01123A9F00E94950D843039F40E94BF
:1010A000A50E8C2F8F710E9497094CC0053008F057
:1010B00049C0CF718C2F0E94870963E08C2F07C035
:1010C000053040F00E94A50E64E08C2F8F710E94C5
:1010D000870E38C081E00E94AF0E34C0112331F07A
:1010E000002309F28D2F0E94410510C0002311F248
:1010F000D93349F49FEFE7EEF3E09150E040F04040
:10110000E1F700C000008D2F0E94EB0588EF8C0DE9
:10111000843020F40E94A9220E94BE04DD20A1F0A8
:101120000E94950D80FD10C0F70115820E948F0D61
:101130000E948709C7010E94C1080E948F0D0E946A
:10114000970902C0D12CE6CFCDB7DEB7E8E00C940A
:10115000B92C0F931F93CF93DF93EC0168817981B2
:101160008D810E94880A8C010E94D4090E943F0947
:10117000B801CE010E948706DF91CF911F910F9198
:101180000895CF93DF93FC0124812223D1F0EC0159
:101190000E94790481110FC00E94AF0D882389F04D
:1011A0008D81882371F08091720382FF0AC082E0F2
:1011B0000E94AF0E06C0CE010E94A908CE010E9477
:1011C000F303DF91CF91089580E090E00E94E12247
:1011D00080E090E00E9406230E94D60D0E941E0E21
:1011E0000E94E8150E94C91508958091040190910C
:1011F00005010E94DD230E94E40808950E94C60DA7
:101200000E94F508089592959F70963079F010F439
:10121000925001C09A50923068F4803F69F018F4FF
:10122000883E40F409C0843F29F406C0883E20F07F
:10123000813F11F080E0089581E00895FC01248150
:10124000222339F0808191810E947D0A0E94030946
:10125000089580E00895A6E0B0E0E1E3F9E00C94A1
:10126000A32C2696E2E00C94BF2CA7E0B0E0EBE3C1
:10127000F9E00C94A32C2796E2E00C94BF2C08957F
:1012800008950E94400908950E94410908950E940E
:10129000440990931F0280931E0208950E944709FB
:1012A000089520911E0230911F02822B932B0E94E1
:1012B0004709089520911E0230911F028223932333
:1012C0000E944709089520911E0230911F02822733
:1012D00093270E94470908950E94400908950E949B
:1012E0006C0990931D0280931C02089580E090E0A9
:1012F0000E946F09089521E030E0A90102C0440F67
:10130000551F8A95E2F7CA010E946F09089521E0EE
:1013100030E002C0220F331F8A95E2F780911C0251
:1013200090911D02822B932B0E946F09089521E05A
:1013300030E002C0220F331F8A95E2F720953095E6
:1013400080911C0290911D02822393230E946F09B9
:10135000089521E030E002C0220F331F8A95E2F7A2
:1013600080911C0290911D02822793270E946F0991
:10137000089520911C0230911D02822B932B0E9414
:101380006F09089520911C0230911D02822393233E
:101390000E946F09089520911C0230911D0282273E
:1013A00093270E946F0908950895962F9770A1E0E2
:1013B00001C0AA0F9A95EAF793E0769567959A95FA
:1013C000E1F7660F771F660F771FFA01E60FF71F29
:1013D00040E050E0682F70E090819B01042E02C035
:1013E000369527950A94E2F72170219529272A231B
:1013F000292721934F5F5F4F4430510569F70895C6
:10140000FB01782F777023E0969587952A95E1F771
:10141000880F991F880F991FE80FF91F40E050E0CF
:1014200080E0219130E0072E02C0369527950A947E
:10143000E2F721703327042E01C0220F0A94EAF745
:10144000822B4F5F5F4F4430510559F70895282F85
:101450009C3070F4893060F4862F622F70E029E0B0
:10146000929F600D711D112444EE51E00E94D50938
:1014700008959C3070F4893060F4292F90E064EE78
:1014800071E039E0239F800D911D11240E94000A14
:10149000089580E00895A0E0B0E0E1E5FAE00C9462
:1014A0009C2C7C0100911C0210911D0280911E0257
:1014B00090911F02082B192BCFE0D0E0CC24C394CD
:1014C000D12CC6010C2E02C0880F991F0A94E2F796
:1014D00080239123892B21F4219798F7B12C07C001
:1014E000BC2EB7018C2F0E94B2110197A9F38B2D4E
:1014F000CDB7DEB7E9E00C94B82CCF93DF93EC01C5
:101500000E944B0ABE010E94B211DF91CF91089553
:101510001F93CF93DF93EB019091E301992321F087
:10152000CB010E947D0A13C0882349F0CB010E94A1
:101530004B0A182F682FCE010E94270A04C0CB0146
:101540000E94390A182FBE01812F0E94B211DF912B
:10155000CF911F9108951F93CF93DF93C0912002E5
:1015600017E080912102C817A1F0D0E01C9FF00184
:101570001D9FF00D1124EE5DFD4F208131814281D0
:1015800053816481758186810E9435092196C770D7
:10159000E8CFDF91CF911F91089520915A023091A9
:1015A0005B0240915C0250915D0260915E0270911D
:1015B0005F02809160020E9435090895CF93DF9306
:1015C0008091600282958F7009F04EC080915F0219
:1015D000882309F449C08091200240912102509152
:1015E0005B0260915A02C0915C02D0915D0277E08B
:1015F0008417D1F190E0789FF001799FF00D1124CC
:10160000DF01AE5DBD4F14962C911497222349F152
:1016100011962C911197251324C02C91261321C0CB
:1016200015962C91159721111CC012962D913C9165
:1016300013972C1B3D0B283C310598F480916002D8
:101640008F70806180936002E85DFD4F80818F70B4
:10165000806180838AE592E00E94C1080E94AB0A03
:1016600003C001968770C4CFDF91CF910895209178
:1016700020029091210257E02917A9F030E0529FF3
:10168000F001539FF00D1124EE5DFD4F7181761333
:1016900006C07081781303C07581741306C02F5F74
:1016A0003F4F2770E9CF80E0089581E00895A4E1DD
:1016B000B0E0EDE5FBE00C94992C8C0186E0F8019C
:1016C000DE011F9601900D928A95E1F7F801848161
:1016D000E5809AE5A92E92E0B92E90915E029111D3
:1016E00018C0882309F480C1EE20D9F1C8010E94F6
:1016F0001E09F82E8823A9F187E0F801D501019091
:101700000D928A95E1F7C5010E942E050E94DE0A1E
:1017100098C0F801C080D18082809380F0905F02F1
:1017200020915C0230915D02A401421B530BFF200B
:1017300009F406C1483C510508F0AFC0882309F4FC
:1017400055C180916002282F207F90915B02222357
:1017500061F09D1509F462C0C8010E941E09811143
:1017600073C0C8010E94C1083FC19D1115C090916E
:101770005A029C1111C0E1100FC08F7080618093DC
:1017800060020E94CD0A8AE592E00E94C108809121
:101790006002F801868326C1E1103AC040E06D2D59
:1017A0008C2D0E94370B40E06D2D8C2D0E94370B45
:1017B000E82E811117C1CF86D88A8F8598890E941B
:1017C0007D0A292F22952F70243020F49F7022301B
:1017D00028F009C02A50223080F014C0992349F023
:1017E000811107C013C0992321F0F8019681907FE1
:1017F00069F0805E883030F409C0803F38F0815F46
:10180000833020F0C8010E94C108EF2CFE2CEEC0EE
:1018100080916002816080936002E4C090915A02DE
:101820009C119ACFE11098CFF8018683C8010E94DD
:10183000C10887E0F801AAE5B2E001900D928A950F
:10184000E1F70E94CD0AD2C0EE2009F48ACF2091A0
:101850006002822F82958F7090E002978CF08091C9
:101860005A0290915B02998788879B868A8680912D
:101870005E028C871D862E87CE0108960E94C108C5
:1018800087E0F801AAE5B2E001900D928A95E1F7B0
:101890000E94DE0A0E94CD0AA7C090916002292F03
:1018A000207FA1F4682D9A8A898AA6017A899E2DC3
:1018B0000E942B098AE592E00E94C10887E0F501A9
:1018C00011928A95E9F70E94CD0A8CC0882309F409
:1018D0008DC080915B028D1111C080915A028C11D4
:1018E0000DC0E1100BC0F8019683C8010E94C10829
:1018F00087E0F50111928A95E9F778C0C8010E9446
:101900001E09882309F42DCFEE2009F42ACF209157
:101910006002822F82958F7090E002970CF4B0CF16
:1019200080915A0290915B029A8389839C828B8278
:1019300080915E028D831E822F83CE0101969ECF01
:10194000483C510508F040C0882309F44DC0FE2CE6
:10195000EE2009F406CF80915B028D1127C08091A3
:101960005A028C1123C09091600290FD16C0892FFD
:1019700082958F70282F30E02115310571F0F80124
:1019800096832F30310509F451CF8F5F982F9295B0
:10199000907F86818F70892B48CF87E0F801AAE578
:1019A000B2E001900D928A95E1F720C0C8010E9433
:1019B0001E09811165CF8091600281608093600271
:1019C000C8010E94C10812C0682D9A8A898AA6019E
:1019D0007A899E2D0E942B0987E0F50111928A9544
:1019E000E9F72FCFF12C02C0FF24F3948F2D6496DA
:1019F000ECE00C94B52CAEE0B0E0E1E0FDE00C943E
:101A0000A22C288739874A875B876C877D878E87DA
:101A1000CE0108960E94570B882361F06C856623DF
:101A2000A9F1288539854A855B857D858E850E944B
:101A300035092CC087E0FE013896DE011196019031
:101A40000D928A95E1F76C85662301F120912102C0
:101A500030E0C9010196877099274091200250E03B
:101A600084179507E1F16D8397E0929FD001939FD2
:101A7000B00D1124AE5DBD4FFE01319601900D9267
:101A80009A95E1F7809321020E94AB0A17E08091BA
:101A9000200290912102891779F1189FC001112429
:101AA0008E5D9D4F0E94570B882331F1E0912002FB
:101AB0001E9FF0011124EE5DFD4F20813181428196
:101AC00053816481758186810E943509809120024D
:101AD00090E001968770992780932002D8CF0E94CA
:101AE000FE081092210210922002EAE5F2E087E05F
:101AF000DF011D928A95E9F72E96E3E00C94BE2C47
:101B00000E94CB242091840230918502821B930B8A
:101B10009C0181E02838334108F480E008958091E9
:101B200083028695869586950895809183028770B5
:101B300008950E94CB242091810230918202821B61
:101B4000930B8838934140F08091830282FB882771
:101B500080F991E0892701C080E08170089590911B
:101B60008302977081E009F480E008958091A902D2
:101B700008959091A902892B8093A90208958095D8
:101B80009091A90289238093A90208951092A90235
:101B900008959091A802892B8093A80208958095BA
:101BA0009091A80289238093A80208951092A80218
:101BB000089508950E94D90D08950E94DA0D0895A0
:101BC000CF93909187029823891779F0C82F0E94AC
:101BD000CB249093850280938402809187028C2B82
:101BE000809387028C2F0E94DD0DCF9108959091F4
:101BF0008702292F282399F08095892380938702D3
:101C0000882319F00E94CB2402C080E090E09093DA
:101C1000850280938402809187020E94DD0D0895E1
:101C200080918702882349F01092870210928502E2
:101C30001092840280E00E94DD0D0895CF93DF931F
:101C4000E0910401F09105018091A9028083E09167
:101C50000401F091050190818091A802892B808375
:101C6000809187028823B9F00E94800D81110E9423
:101C7000100EE0910401F09105019081809187029E
:101C8000892B808380910401909105010E942B2370
:101C900081110E94100EC0910401D091050140E213
:101CA00050E061E672E0CE010E946A2D892B59F066
:101CB00080E2FE01A1E6B2E001900D928A95E1F783
:101CC000CE010E94B922DF91CF9108950E94D90DD3
:101CD00008950E94660E089590918602292F282368
:101CE000821729F0892B809386020E94690E08953D
:101CF00090918602292F282331F0809589238093A3
:101D000086020E94690E08950E94D90D089590914F
:101D1000720392FF17C098E0899F90011124262B2F
:101D2000209383020E9487090E94CB249093820211
:101D300080938102809183028695869586950E9484
:101D4000840E08950E9487090895109283021092CC
:101D500082021092810280E00E94840E0895909188
:101D600083028095892380938302282F277069F44A
:101D7000981759F09091720392FF07C08695869547
:101D800086950E9497090E94A50E0895909172036E
:101D900092FB222720F9281769F080FB92F9909393
:101DA000720380917103909172030E940E0F82E082
:101DB0000E94AF0E08958091720382FB882780F9FC
:101DC00091E089270E94C60E089581E00E94C60E08
:101DD000089580E00E94C60E08956FEF7FEF80E0C7
:101DE00090E00E94C22D089580E090E00E948E2D28
:101DF00021E0863E9E4F09F020E0822F089582E088
:101E000090E00E94802D089583E090E00E94802D54
:101E1000089584E090E00E948E2D0895BC0184E036
:101E200090E00E94C22D0895AB01BC018FE090E0CC
:101E30000E94B62D0895AB01BC0183E190E00E94A1
:101E4000B62D089560E070E0CB010E941B0F08954D
:101E500060E070E0CB010E94140F0E94220F0895F1
:101E6000A8E0B0E0E6E3FFE00C94A32C66EE7EEF82
:101E700080E090E00E94C22D60E082E090E00E944D
:101E8000A42D60E083E090E00E94A42D10921F0238
:101E900010921E0260E074E184E090E00E94C22D86
:101EA00060E086E090E00E94A42D6FEF87E090E074
:101EB0000E94A42D40E050E0BA0188E090E00E942A
:101EC000B62D60E084E290E00E94A42D60E087E1FE
:101ED00090E00E94A42D60E08CE090E00E94A42D90
:101EE00060E08DE090E00E94A42D19821A821B828E
:101EF0001C821D821E821F82188648E050E068E125
:101F000070E0CE0101960E94942D40E050E0BA01AD
:101F100080E290E00E94B62D0E94280F2896E2E011
:101F20000C94BF2C0E94300F0895682F8EE090E033
:101F30000E94A42D0895A6E0B0E0E1EAFFE00C9431
:101F4000A12C0E94CB248C018091AA029091AB021B
:101F50000817190781F019821A820E94CB24682F72
:101F600049815A81792F80E090E00E94E904109322
:101F7000AB020093AA022696E4E00C94BD2C0E94CA
:101F8000D7246093C8027093C9028093CA029093C9
:101F9000CB026093C4027093C5028093C6029093F3
:101FA000C702089581E0089581E008950E94D40F4A
:101FB000089508950E94D90F08950E94D90F089599
:101FC0000E94DD0F08950E94D90F08950E94E30F2B
:101FD00008950E94D90F089582EA92E10E946C143C
:101FE0000E94E90F0E94E60F08950E94DA0F0E94F6
:101FF000D90F08950E94C1120E94B7040E94A12027
:1020000008950E94C2240E94AB130E94FA0F0E94FE
:10201000E91E0E94651D0E94E00F0895A6E0B0E051
:10202000E4E1F0E10C94972C0E94D20F811103C0DF
:102030000E949B0F62C00E94C1132CEAE22E22E094
:10204000F22E5701D12CF501019111915F018D2DD7
:102050000E94DF1280279127D394FCE0DF1619F04D
:10206000892B89F302C0892B19F38091CC0281FD61
:102070000E94E8120E94D60F782E10E06624639426
:10208000812F0E94DF124C01F701A080B180A826A9
:10209000B926A114B10449F100E0CC24C394D12C99
:1020A000C5018C219D21892BC1F07720B1F00983D6
:1020B0001A830E94CB249C838B836D8221E0C40110
:1020C0008C219D21892B09F420E049815A816B8163
:1020D0007C818D81922F0E94E9040F5FCC0CDD1C66
:1020E0000930F1F6F701918280821F5FF2E0EF0E76
:1020F000F11C1C3029F60E94BF0F0E94A81D0E94EF
:10210000A0200E940A160E94D0042696EEE00C94AD
:10211000B32C1F93CF93DF930E94B711EC01C1152D
:1021200080E5D807E8F5C11590E4D90708F0A8C004
:10213000C03ED10530F5CD3CD10508F094C0C83A79
:10214000D10578F4C53AD10508F083C0C130D10576
:1021500009F47CC008F4F2C0C430D10508F0F1C025
:10216000EDC0C33CD10508F0E9C0C85AD0E0CC0F9F
:10217000DD1FCD59DE4F0990D881C02DCE0194646A
:10218000E1C0C11580E2D80708F0CBC0C11591E0CD
:10219000D90708F06BC0C83ED10508F4D2C0CEC044
:1021A000C03682E5D80728F5C03492E5D90708F093
:1021B00079C0C03282E5D80708F06CC0C11592E53D
:1021C000D90708F481C04C2F4695469580E2489F78
:1021D000A0011124C37021E030E0C90102C0880FC2
:1021E000991FCA95E2F7EA01C82BD92BCE019D6849
:1021F000A9C0C03A82E5D807B8F48C2F8F71C038D7
:1022000092E5D90708F07BC08695869590E2899F74
:1022100090011124C37081E090E002C0880F991FE3
:10222000CA95E2F79A6868C0C03C82E5D80708F40E
:102230006DC0C03E92E5D90708F080C0CF71DD27A0
:10224000DC2FCC27CE01806F906A7CC081E090E0CB
:1022500079C0C55AD0E0C756DE4F8881C82FD0E07C
:10226000CE0190646FC0CE0190656CC08D2F0E942E
:102270005312182FCE0199270E94B7111F715CC00D
:10228000CE0199270E94B711CC27DF70D06A8C2B22
:102290009D2B58C0CF71D0E0DC2FCC27CE01816FB1
:1022A000906A50C08C2F8F718695869590E2899F99
:1022B00090011124C37081E090E002C0880F991F43
:1022C000CA95E2F79C6818C08C2F8F710E94531238
:1022D00095E0D695C7959A95E1F7CF70D0E0DC2FC1
:1022E000CC27282F30E084FF05C084E0220F331F65
:1022F0008A95E1F7D069CE01822B932B23C090E021
:10230000D82FCC27CE01846F906A1CC08C2F8F7180
:102310000E9453128F7190E0D82FCC27CE0190628B
:1023200011C08D2F8F710E945312182FCE01992743
:102330000E94B7111F719062912B04C080E090E061
:1023400001C0CE01DF91CF911F9108957C3038F408
:10235000693028F4462F672F0E949A03089580E081
:1023600090E008950E94A6110E9489100895823875
:10237000910569F1B0F48133910509F475C048F411
:102380008932910509F467C08A32910509F471C058
:1023900008958533910509F459C089339105B9F041
:1023A0000895833E910589F138F4803E9105D1F07E
:1023B000823E910529F10895863E9105C9F1873E37
:1023C0009105D9F1843E910509F06CC027C0209198
:1023D000710320FD57C021FD55C02091720323FDDC
:1023E0005BC008958091710380FD48C080917203A5
:1023F00080FF48C08091710384FD46C083EE51C0C8
:102400008091710382FF3CC0F5CF8091710382FD02
:1024100037C08091720380FD35C0ECCF809172038C
:1024200081FF36C08091710384FD2EC087EE39C0D4
:102430008091710383FF2AC0F5CF8091710383FDE2
:1024400025C08091720381FD23C0ECCF8091710380
:1024500085FD22C01FC08091710385FD1BC0809146
:10246000720383FF19C00AC08091710386FD16C0F4
:1024700017C08091710386FD13C010C089E311C09D
:1024800082EE0FC080EE0DC080E00BC086EE09C06A
:1024900084EE07C085E305C089E203C08AE201C07B
:1024A00081E390E008959091710392FF10C041E0A4
:1024B000282F2471243009F040E031E0282F2871C2
:1024C000283009F030E0431711F02CE0822793FF09
:1024D00010C041E0282F2471243109F040E031E0A0
:1024E000282F2871283109F030E0431711F02CE033
:1024F00082273091720330FF10C051E0282F2171E4
:10250000213009F050E041E0282F2871283009F0EF
:1025100040E0541711F029E0822731FF10C041E05C
:10252000282F2171213109F040E031E0282F287156
:10253000283109F030E0431711F029E0822794FD9B
:10254000877E089580E008950E94ED0E08950E9410
:10255000C1132FEF86E791E0215080409040E1F7D2
:1025600000C000000E94C11385E00E94DF1280FFBE
:1025700004C00E94A4120E94182508950E94A71268
:1025800008950E94F40E811102C00E94920F0E94D1
:10259000FF0E8093CC020E94090F909372038093E8
:1025A00071030E94BE120E94040F90E00E944E0927
:1025B00080911C0290911D020E946C090895E82FE1
:1025C000F0E0EE0FFF1FE557FC4F808191810895E9
:1025D000089580EA8A95F1F7089500C008950E9451
:1025E000E912089508950E94F21208950E94F312CC
:1025F00008950E94F21208950E94F9120895F89425
:10260000E82FE295EF70F0E031A1282F2F7081E0E4
:1026100090E001C0880F2A95EAF7982F90959323B0
:1026200091A392A1892B82A3789408950F931F936D
:10263000CF93DF93CCE9D1E089918F3F11F00E94D5
:10264000FF1281E0C53AD807B9F7C5EAD1E001EB3E
:1026500011E089918F3F11F00E94FF120C171D07A6
:10266000C1F7DF91CF911F910F910895AF92BF9263
:10267000DF92EF92FF920F931F93CF93DF93C62FBA
:10268000D0E0C456DE4F28812F3F09F45AC08A019A
:10269000F62EE92ED82EF894E22FE295EF70F0E0B6
:1026A00091A1822F8F7021E030E001C0220F8A9526
:1026B000EAF7892F822B81A382A12095282322A3C8
:1026C00078940E94ED1285EAA82E81E0B82EED2DB7
:1026D000FE2D9F01285E3F4FE12CA80140955095AB
:1026E000D5016D915D016F3FC9F0862F82958F7086
:1026F00090E0DC0190968C9190E06F7002C095950F
:1027000087956A95E2F780FD09C080819181802BD1
:10271000912B91838083EE24E39406C08081918184
:1027200084239523918380833296E217F307C1F6C1
:1027300088818F3F11F00E94FF126E2D8F2D0E9415
:10274000EF12DF91CF911F910F91FF90EF90DF90EB
:10275000BF90AF9008950E94161388E1EBE8F3E074
:10276000DF01982F1D929A95E9F7E3E7F3E0DF0187
:102770001D928A95E9F78CE00E9415140E94FC12C4
:102780000895CF92DF92FF920F931F93CF93DF9321
:10279000CDB7DEB768970FB6F894DEBF0FBECDBFDA
:1027A0008E010F5F1F4F88E1F80111928A95E9F7BA
:1027B000F12CCC24C394D12CA6016F2DC8010E940A
:1027C0003613F394CC0CDD1CF9E0FF12F5CF48E191
:1027D00050E0B80183E793E00E946A2D21E0009762
:1027E00009F420E0892B41F088E1F801A3E7B3E088
:1027F00001900D928A95E1F74CE06BE873E083E776
:1028000093E00E941614182F0E94F612812F6896EA
:102810000FB6F894DEBF0FBECDBFDF91CF911F91F1
:102820000F91FF90DF90CF9008950895EF92FF925F
:102830000F931F93CF93DF937C018B01C42F22232F
:1028400049F081E08093CF020E94CB249093CE0286
:102850008093CD028091CF02811102C080E01CC024
:102860008091CD029091CE020E94E3240597B0F3AF
:10287000D0E0CC0FDD1FAE01B701C8010E946A2D68
:10288000892B39F0AE01B701C8010E94772D81E094
:1028900001C080E01092CF02CDB7DEB7E6E00C9425
:1028A000BB2C0E94B6260E9401100E94C3260895E8
:1028B0000E94C8260E940E100E94E22608950E94DF
:1028C00062240E949C260E94EC0F0E9451140E94D8
:1028D00058140E94F50FFBCF9093DD018093DC012B
:1028E0000895282F35EB2303C001112497FF03C05F
:1028F0008058910902C080589F4F892F0895809178
:10290000D60280FF06C060910B0170E0660F771F52
:1029100026C081FF04C060910B0184E005C082FFE6
:1029200007C060910B0188E0689FB001112417C0B7
:102930009091D5029923D1F060910A01961788F7FA
:1029400020910B0188E0289F90011124929FA00103
:10295000939F500D112470E0CA010E94262C60380C
:10296000710540F46115710519F406C068E070E066
:10297000862F08958FE7089581E008958091D6020B
:1029800080FF08C06091070170E0759567957595A7
:10299000679521C081FF06C06091070170E07595C1
:1029A000679519C082FF04C06091070170E010C0F4
:1029B0009091D402992399F0609106019617A0F79F
:1029C00080910701899FC001112470E00E94262C8C
:1029D0006038710540F46115710519F406C061E0B5
:1029E00070E0862F08958FE7089581E008958D3C6B
:1029F00021F40E947F14819504C08E3C29F40E942A
:102A00007F148093DA0208958F3C21F40E947F1492
:102A1000819504C0803D29F40E947F148093D902DF
:102A20000895893D19F40E94BE1405C08A3D31F411
:102A30000E94BE1481958093DB0208958B3D21F4A2
:102A40000E94BE14819504C08C3D29F40E94BE14DE
:102A50008093DC0208959FE2980F983078F421E08B
:102A600030E0A90102C0440F551F9A95E2F7CA0150
:102A70009091D802892B8093D80208958D3D21F43E
:102A80008091D60281600BC08E3D21F48091D602E8
:102A9000826005C08F3D29F48091D60284608093C6
:102AA000D60208958D3C39F49091DA0297FF35C033
:102AB0001092DA0259C08E3C29F49091DA0219166C
:102AC000BCF32BC09091D9028F3C29F497FF25C00D
:102AD0001092D90249C0803D19F41916CCF31DC0DB
:102AE0009091DB02893D29F41916BCF41092DB02A7
:102AF0003BC08A3D19F497FF10C0F8CF8B3D39F4E5
:102B00009091DC0297FF09C01092DC022DC08C3D31
:102B100021F49091DC021916BCF39FE2980F9830D3
:102B200080F421E030E0A90102C0440F551F9A95BE
:102B3000E2F7CA0180959091D80289238093D80248
:102B400013C08D3D21F48091D6028E7F0BC08E3D47
:102B500021F48091D6028D7F05C08F3D29F48091AC
:102B6000D6028B7F8093D6028091D902811106C054
:102B70008091DA02811102C01092D5028091DB02AD
:102B8000811106C08091DC02811102C01092D40232
:102B900008950E94CB242091D902211104C02091D4
:102BA000DA02222321F09093D3028093D202209163
:102BB000DB02211104C02091DC02222321F090933A
:102BC000D1028093D00287ED92E00E94D322089533
:102BD000E7EDF2E086E0DF011D928A95E9F71092B9
:102BE000D5021092D4021092D6020895FC0182817F
:102BF00081110DC0838181110AC08481811107C0B8
:102C000091E08581811101C090E0892F01C081E0B0
:102C100081700895A6E0B0E0E0E1F6E10C94A22C0A
:102C200086E0E7EDF2E0DE01119601900D928A95C3
:102C3000E1F71092D9021092DA021092DB021092A0
:102C4000DC028B81811104C08C81882309F456C079
:102C50008091D2029091D3020E94E324AC01909122
:102C6000D502992339F020910C0130E02417350763
:102C700058F044C020910D018AE0289F9001112452
:102C80002417350718F03AC09F3F19F09F5F9093C3
:102C9000D5021B81112361F00E947F14111614F0DC
:102CA0009FEF01C091E0989F902D11249093D9023D
:102CB0001C81112361F00E947F14111614F09FEF04
:102CC00001C091E0989F902D11249093DA02809199
:102CD000D902882399F01091DA02112379F00E9429
:102CE0007114811101C081E08093D902812F0E946B
:102CF0007114811101C081E08093DA028D8181110C
:102D000004C08E81882309F456C08091D00290912E
:102D1000D1020E94E324AC019091D402992339F0AE
:102D20002091080130E02417350758F044C0209165
:102D300009018AE0289F900111242417350718F013
:102D40003AC09F3F19F09F5F9093D4021D811123D9
:102D500061F00E94BE14111614F09FEF01C091E0C3
:102D6000989F902D11249093DB021E81112361F016
:102D70000E94BE14111614F09FEF01C091E0989FBD
:102D8000902D11249093DC028091DB02882399F02E
:102D90001091DC02112379F00E947114811101C09D
:102DA00081E08093DB02812F0E947114811101C0A8
:102DB00081E08093DC02BE016F5F7F4F87ED92E080
:102DC0000E94EF23811105C087ED92E00E94F61565
:102DD00081110E94C91586E0FE013196A7EDB2E08F
:102DE00001900D928A95E1F72696E3E00C94BE2CB3
:102DF000EF92FF920F931F93CF93DF938B01682F76
:102E000011110AC0442329F0E82FF0E0E25EFB4FE5
:102E10006491762F862F75C0212F30E0E82FF0E0E7
:102E2000442321F0E25EFB4FE491F0E046E0049F92
:102E3000C0011124CFEFD0E0BE010E94122C4BEA5A
:102E40004603C001479F900D1124800F911D800FF4
:102E5000911D982F990F890FAE01421B530B4E9F66
:102E6000D0014F9FB00D5E9FB00D11249B2F189F76
:102E7000A0011124452F55278E01041B150B0E9F11
:102E8000A0010F9F500D1E9F500D11247E01E81AC6
:102E9000F108E29E8001E39E100DF29E100D1124B8
:102EA000212F3327C21BD30BCE9F9001CF9F300D14
:102EB000DE9F300D112462307105A9F048F46115D0
:102EC000710569F061307105C9F48B2F752F0DC044
:102ED0006430710581F058F06630710579F47E2F09
:102EE0008B2F932F0DC0832F7B2F9E2F09C08E2FEA
:102EF0007B2F952F05C08E2F732F02C07E2F852F1D
:102F0000692FCDB7DEB7E6E00C94BB2C41E00E9400
:102F1000F816089508950E9486170895CF93DF93B9
:102F2000762FE901682F842F0E948B17798368839D
:102F30008A83DF91CF9108958091A303282F26954E
:102F400030E02115310519F48170826005C02B3203
:102F5000310524F0817084658093A3030895A0E077
:102F6000B0E0E5EBF7E10C949D2C88E090E00E9446
:102F7000882D6B017C0184E290E00E94802D282F37
:102F800030E040E050E060E070E080E090E000E29F
:102F90000E94CA2CB22FA32FF42FE52FD62FC72FB4
:102FA00097018601BC29A12BF22B5E2F532B2B2FCF
:102FB0003A2F4F2F6D2F7C2FCDB7DEB7E8E00C9462
:102FC000B92CA0E0B0E0E7EEF7E10C94992C4901B0
:102FD0005A016B017C010E949C178401A4016A2D97
:102FE0007B2D88E090E00E94B62D94014A2D5B2D48
:102FF000B601C70100E20E94E52C622F84E290E056
:103000000E94A42DCDB7DEB7ECE00C94B52CE3EA1A
:10301000F3E023E0208311828FEF82838383148285
:10302000758130E04FEF5FEF60E0868197810E940D
:10303000E11708958091A30380FF02C0869508954B
:1030400080E008959091A703933018F49F5F9093C8
:10305000A703882391F02091A3033091A40340910A
:10306000A5035091A6036091A7037091A8038091D6
:10307000A9039091AA030E94E117089581E00E949C
:10308000221808959091A703992319F091509093D5
:10309000A703882391F02091A3033091A4034091CA
:1030A000A5035091A6036091A7037091A803809196
:1030B000A9039091AA030E94E117089581E00E945C
:1030C0004218089570E00E94B220089560911201A4
:1030D0008091A30380FF0BC08091110123E0829FA8
:1030E000C001112485559C4F0E946218089580915B
:1030F000130190911401891778F7E82FF0E09F01F0
:10310000220F331FE20FF31FE555FC4F118210828F
:1031100012828F5FF0CF9091A30390FF16C0909121
:10312000130120911401921770F4E92FF0E0DF01F0
:10313000AA0FBB1FEA0FFB1FE555FC4F818360837D
:1031400042839F5FF0CF0E9466180895A3E0B0E02D
:10315000ECEAF8E10C94A32C9091A30390FF0AC031
:103160009E012F5F3F4F0E948E174B8169818A819C
:103170000E948B182396E2E00C94BF2CCF93DF9330
:10318000EC01EC81F0E0E75EFC4F4491E3EAF3E010
:10319000628181810E94A6188C818F5F8C83DF9170
:1031A000CF910895CF93DF93EC01E3EAF3E04381FD
:1031B00062818C810E94A6188C818F5F8C83DF9145
:1031C000CF910895A3E0B0E0E8EEF8E10C94A12CD3
:1031D0008C018091DD0281110AC09E012F5F3F4F5B
:1031E0004FEF6FEF0E948E178A818093DD02F80106
:1031F0008481813051F028F0823061F44091DD0209
:103200000AC08091DD0240E007C06091DD0240E02D
:1032100080E003C040E080E060E00E948B18F8018D
:10322000848190E0019663E070E00E94262C848304
:103230002396E4E00C94BD2CA3E0B0E0E2E2F9E1D7
:103240000C949C2C082FE62EF42ED22E9091A303E2
:1032500090FF6BC0E92FE695AE2FB0E0AF54BE4FA4
:103260008C91809341039E7F923061F49E012F5F89
:103270003F4F802F0E948E174B8169818A810E9467
:103280008B183DC0823019F4F090A60338C0863008
:1032900019F40091A40333C08930D9F3893179F549
:1032A000E9518E2F8170C82EE695F0E0E75EFB4F66
:1032B0001491B12C60911501B616F8F4B19EC001BD
:1032C000112470E00E94122C802FC11002C0860FC2
:1032D00001C0861B909113012B2D30E0290F311D69
:1032E000A901440F551F240F351F25553C4F4F2D65
:1032F0006E2D0E948E17B394DDCF0E946618009346
:10330000A403E092A503F092A603DD2071F02091C2
:10331000A3036091A7037091A803302FA7018091A8
:10332000A9039091AA030E94E1172396E9E00C9467
:10333000B82CE3EAF3E09181282F4381628188E091
:10334000890F0E941C19089581E00E94991908951F
:10335000E3EAF3E09181282F4381628188EF890FAE
:103360000E941C19089581E00E94A8190895E3EABB
:10337000F3E0628128E0620F08F46FEF282F4381A9
:1033800081810E941C19089581E00E94B719089557
:10339000E3EAF3E0628128E0621B08F460E0282F92
:1033A000438181810E941C19089581E00E94C819FF
:1033B0000895E3EAF3E0438128E0420F08F44FEF79
:1033C000282F628181810E941C19089581E00E944A
:1033D000D9190895E3EAF3E0438128E0421B08F499
:1033E00040E0282F628181810E941C19089581E0AC
:1033F0000E94EA19089520E00E941C190895FF9286
:103400000F931F93CF93DF93EC01F12C0FEF10E09C
:1034100060911501F616F0F4809113012F2D30E024
:10342000280F311DC901880F991F280F391F2555F5
:103430003C4F70E0C8010E94262C962F8C81409151
:10344000A6036091A503F99E800D11240E948E179A
:10345000F394DECF0E9466189A818C8190FF02C09F
:103460008F5F01C081508C83CDB7DEB7E5E00C944F
:10347000BC2CA0E0B0E0EFE3FAE10C949B2CFC0143
:10348000828180FF02C00FEF01C001E010E042E145
:10349000A42E80911501181708F043C080911301E4
:1034A000C12ED12CE601C80FD11DCE01880F991F66
:1034B000C80FD91FC555DC4F198218821A8234E013
:1034C000E32EF12CB12C8091DF028B0D83312CF097
:1034D0006A2D0E94042C892F05C087FF03C090919C
:1034E0001501890F082E000C990BC816D90691F406
:1034F0008091A6038E9DA0018F9D500D112455959E
:103500004795559547959E016091A5038091A40329
:103510000E948E17B00EF1E0EF1AF108A1F61F5FBE
:10352000B8CF0E9466188091DF02013031F481111A
:1035300002C080911501815007C090E00196609112
:10354000150170E00E94262C8093DF02CDB7DEB714
:10355000EAE00C94B72CCF93809113019091140161
:10356000891770F4E82FF0E09F01220F331FE20F5C
:10357000F31FE555FC4F1182108212828F5FF0CF4E
:10358000C0E060911501C617C0F5EC2FF0E070E0C7
:10359000CF010E94262C20911301820F2091DE0280
:1035A000022E000C330B90E0E217F307CCF02091D1
:1035B0001001022E000C330B2E173F078CF09C01DC
:1035C000220F331F820F931F9C0125553C4F4091C2
:1035D000A6036091A5038091A4030E948E170BC0DF
:1035E000FC01EE0FFF1F8E0F9F1FFC01E555FC4FE6
:1035F000118210821282CF5FC4CF0E946618209180
:103600000F018091DE02820F8093DE029091100103
:10361000920F9093100119165CF4082E000C990B70
:103620004091150150E041505109841795071CF055
:10363000219520930F01CF910895A0E0B0E0E3E23F
:10364000FBE10C94992C8C01FC014481C42FD0E047
:103650009E01DE010E946A2C9B01AC010E94802C1D
:103660006B017C01E0E2F0E0EC1BFD0BA5E5B0E0B6
:103670009B01AC010E94802C4B015C019F01DF018A
:103680000E94622C9B01AC010E948B2C9B01AC011F
:103690002C0D3D1D4E1D5F1DC501B4010E943A2C2D
:1036A000C22FD22F2A3228F4F3E02F9F9001112449
:1036B0000DC025E530E02C1B3109C901880F991F89
:1036C000280F391F37FF02C02F5F3F4F35952795D1
:1036D000C22FC095F12C85E5E82EED1A80911501D9
:1036E000F816C8F4F1FC02C08E2D01C08D2F909108
:1036F00013012F2D30E0290F311DA901440F551F53
:10370000240F351F25553C4F4C2F6091A5030E9477
:103710008E17F394E3CF0E946618F801848181111B
:1037200002C091E003C0803219F49FEF90930E0124
:1037300090910E01890FF8018483CDB7DEB7ECE0DC
:103740000C94B52C0F931F93CF93DF93EC0100E003
:1037500010E080911501282F30E00217130724F59F
:10376000909113019801290F311DA901440F551F94
:10377000240F351F25553C4F869590E04C81081746
:1037800019071CF4442331F002C0411103C04091D9
:10379000A60301C040E06091A5038091A4030E94AC
:1037A0008E170F5F1F4FD5CF0E9466188C8190E057
:1037B0000196817099278C83DF91CF911F910F9192
:1037C00008952F923F925F926F927F928F929F9275
:1037D000AF92BF92CF92DF92EF92FF920F931F931F
:1037E000CF93DF93FC016280548081E08483E9E120
:1037F000F3E07490E8E9F3E0E491C091A603C69584
:10380000C158D0E0CC0FDD1F2D2E3324812C75E064
:10381000972EAA24AA94B12CE719EE2EF12C8091B0
:103820001501881608F098C0C82CD12C22E0261566
:1038300068F09C9CF0019D9CF00D1124E052FD4F1E
:103840008091A40380838091A503818351100AC0D5
:103850009C9CF0019D9CF00D1124E052FD4F1382C1
:10386000128260C09C9C80019D9C100D1124E80177
:10387000C052DD4F8B818823F9F081508B832FEF6D
:10388000829FC00111246C8170E00E94122CFB0108
:10389000FF27E75EFC4F8491E82FE7192FEFE29FA7
:1038A000C0011124B7010E94122C8091A603689FC9
:1038B000B00111247A8336C00E944D2DB5010E94BB
:1038C000262C8215930574F582E0861588F40E94F3
:1038D0004D2DB5010E94262C88830E944D2D2091EC
:1038E000A5032695622F70E00E94262C280F2983BD
:1038F0009C9CF0019D9CF00D1124E052FD4F128222
:103900008091A603843120F0893C18F088EC01C036
:1039100084E19C9CF0019D9CF00D1124E052FD4F30
:1039200084838383809113019601280F311DC9017F
:10393000880F991F280F391F25553C4F9C9CF0017B
:103940009D9CF00D1124E052FD4F428161818081E8
:103950000E948E17839463CF0E946618DF91CF91E7
:103960001F910F91FF90EF90DF90CF90BF90AF909D
:103970009F908F907F906F905F903F902F900895D1
:10398000E3EAF3E020812E7F20833181428153815D
:1039900064817581868197810E94E11710924203AC
:1039A0000E94661808956091A303669570E04BE04D
:1039B00050E086E191E00E945D2D892B19F481E0B1
:1039C000809342030E94CB2490933B0380933A035D
:1039D00008959091A30390FF3DC09170811102C0A2
:1039E000926006C08B3210F0946502C0880F982B4D
:1039F0009093A303662391F02091A3033091A40335
:103A00004091A5035091A6036091A7037091A8036C
:103A10008091A9039091AA030E94E1176091A303EA
:103A2000669570E04BE050E086E191E00E945D2DEC
:103A3000892B19F01092420302C00E94D31C81E02E
:103A400080933D034091A6036091A5038091A40358
:103A50000E94FB190895682F9091A303969581E029
:103A6000890F8B3208F081E00E94E91C089581E003
:103A70000E942B1D0895682F9091A30396958FEFB8
:103A8000890F09F48AE20E94E91C089581E00E94EE
:103A90003B1D089561E00E94E91C0895E3EAF3E00C
:103AA00080818160808386950E944A1D089580915F
:103AB000A30380FF03C00E94C01C08950E944E1DF6
:103AC000089560E00E94E91C0895809140038111EF
:103AD0003EC00E94F40E811104C00E94920F0E9409
:103AE00007180E94AF172093A3033093A4034093B9
:103AF000A5035093A6036093A7037093A803809334
:103B0000A9039093AA032E7FA1F40E9407180E9494
:103B1000AF172093A3033093A4034093A5035093BE
:103B2000A6036093A7037093A8038093A9039093BF
:103B3000AA030E949C17109242038091A30380FF66
:103B400003C086950E94611D81E080934003089523
:103B50000F931F93CF93DF9380914203882309F43F
:103B600091C080914103E091A303E695E81BE093A7
:103B70003C03823049F4F0E0EB5EFC4FE491CE2F41
:103B8000D0E00EEB18E159C0863049F4F0E0EE5E6B
:103B9000FC4FE491CE2FD0E002ED18E14EC0893009
:103BA00051F4E695F0E0E15FFC4FE491CE2FD0E0D8
:103BB0000FEF19E142C08F3051F4E695F0E0E45F79
:103BC000FC4FE491CE2FD0E009E31AE136C08531F5
:103BD00049F4F0E0E75FFC4FE491CE2FD0E00BEA30
:103BE0001AE12BC08831D9F0833239F4E7E0F3E0F1
:103BF000C591D49102EE18E120C08432A9F085323B
:103C0000C1F48E2F63E00E94F82BE92FF0E0EC5F07
:103C1000FC4FE491CE2FD0E001EE1BE10EC0C8E2D4
:103C2000D0E00DE11BE109C0C4EFD1E002EA1BE1E5
:103C300004C0C0EDD7E00AE817E180913D03882376
:103C400061F010923D030E94CB2490933B0380933C
:103C50003A0310923F0310923E030E94CB24E0915E
:103C60003A03F0913B038E1B9F0B8F3F9F4750F40D
:103C7000EC0FFD1FF0933B03E0933A038AE393E0DC
:103C8000F8010995DF91CF911F910F910895882335
:103C900011F0FA0101C0FB0109950895CF93DF935C
:103CA000C82FD62F0E941A188C1738F00E941A18A5
:103CB0008D1718F40E94371D03C08C2F0E944A1DD7
:103CC000DF91CF9108951F93CF93DF93FB0115816F
:103CD000111166C0EC010E94B60D8272FE01E05225
:103CE000F847E531F10508F05AC0EE59FF4F0C9442
:103CF0005C2C0E94571D54C046E45DE167E37DE102
:103D000004C047E35DE166E47DE10E94471E48C0D0
:103D100043EB59E164EA79E1F8CF44EA59E163EB16
:103D200079E1F3CF45ED59E164EC79E1EECF44EC74
:103D300059E165ED79E1E9CF47EF59E166EE79E1C7
:103D4000E4CF46EE59E167EF79E1DFCF4EE558E188
:103D50006EE378E1DACF4EE358E16EE578E1D5CF56
:103D600081E015C065E082E017C068E086E014C01D
:103D70006EE089E011C064E18FE00EC067E185E18B
:103D80000BC088E104C062E289E106C083E20E94C0
:103D90004A1D06C06AE285E20E944E1E01C011E083
:103DA000812FDF91CF911F91089586E090E00E94CE
:103DB000802D0895682F86E090E00E94A42D08953C
:103DC0008091E103847089628093E1030E94DA1E8E
:103DD00008950E94F40E811104C00E94920F0E9467
:103DE000E01E0E94D51E8093E103282F269526957C
:103DF000269530E02630310524F087708862809364
:103E0000E1038091E10380FF04C086958695869545
:103E100001C080E00E94FE1F08952091E103822FDF
:103E2000869586958695482F50E04530510554F487
:103E30008F5F982F990F990F990F822F8770892B79
:103E40008093E1038091E10381608093E1030E940C
:103E5000DA1E8091E1038695869586950E94FE1F65
:103E600008958091E103982F969596959695A1F0E7
:103E7000915E990F990F990F8770892B8093E103B9
:103E8000887F91E009F490E08091E10390FB80F954
:103E90008093E1030E94DA1E8091E1038695869566
:103EA00086950E94FE1F08958091E10380FD13C056
:103EB00081608093E103813019F489E08093E1030C
:103EC0008091E1030E94DA1E8091E1038695869538
:103ED00086950E94FE1F08958091E10380FF08C02F
:103EE0008E7F8093E1030E94DA1E80E00E94FE1F15
:103EF00008958091E10380FF03C00E946C1F089524
:103F00000E94541F08959091E103892F869586950C
:103F100086958F5F8F719770863038F4880F880F81
:103F2000880F892B8093E10302C09093E103809175
:103F3000E103887F91E009F490E08091E10390FB38
:103F400080F98093E1030E94DA1E8091E103869557
:103F5000869586950E94FE1F0895863008F085E0BC
:103F60009091E1039770282F220F220F220F922B9E
:103F70009093E103987F21E009F420E09091E10320
:103F800020FB90F99093E1030E94FE1F08950E9488
:103F9000AD1F8091E1030E94DA1E08959C01FB0190
:103FA0008581882349F12230F8E73F07F9F040F492
:103FB0002115E8E73E0769F02130384761F00895A0
:103FC000243098E7390779F058F02530384789F0E0
:103FD000089585E001C080E00E94C71F80E0089539
:103FE0000E94311FFBCF0E940D1FF8CF0E94791F46
:103FF000F5CF0E94831FF2CF81E00895A0E0B0E0EA
:10400000E4E0F0E20C94992C863030F4811105C084
:10401000909180009F7D04C085E090918000906227
:1040200090938000A0918600B0918700282F30E007
:104030000E946A2C25E030E040E050E00E943A2CDB
:104040000027122F232F342F012F122F232F332736
:1040500080918600909187006CE070E00E94122CA5
:104060006017710730F0C80169E070E00E94122CFF
:104070005EC08091860090918700E0908600F0906D
:104080008700E0918600F0918700C6E0D0E0BE0195
:104090000E94122C060F171F211D311D48015901C6
:1040A00085E0880C991CAA1CBB1C8A95D1F7C70116
:1040B000BE010E94122C6F01E12CF12CA701960188
:1040C000260F371F411D511DC501B4010E943A2C16
:1040D00069017A01E0918600F0918700CA01B90177
:1040E0000E94E82B9B01AC01DF010E94802C9B0108
:1040F000AC01C701B6010E94E82BDC01CB012FE027
:10410000B695A795979587952A95D1F70091860042
:104110001091870020E030E0081719072A073B07B5
:1041200028F46091860070918700CB01BC017093E8
:104130008B0060938A00CDB7DEB7ECE00C94B52C11
:104140000895269A2E9882E28093800089E18093D8
:1041500081008FEF9FEF90938700809386000E94ED
:10416000E91E08956A9A2EB12B7F3EB134604FB795
:10417000F894FC01CB01880F991F680F791F6E0F0F
:104180007F1FE617F70789F0819198E03EB900009C
:1041900000C087FF2EB9880F000000C000C000C01B
:1041A0002EB900C09A9591F7ECCF4FBF8FE594E000
:1041B0000197F1F700C000000895CF93DF93FC0151
:1041C000DB0115968C91882309F4DDC09F013057DF
:1041D0002332310508F0D8C0EF010E94090F9093F7
:1041E000720380937103FE01E150F047E232F10562
:1041F00020F4E958FF4F0C945C2C8091710381608E
:10420000AAC0809172038860B2C0809171038260FD
:10421000A2C08091710320C08091710388609BC00F
:10422000809172031EC0809172038260A0C0809151
:104230007103806190C08091710380628CC0809115
:104240007103806488C00E94FE08809171038068B9
:1042500082C080917103886084607DC08091720308
:104260008260816084C0809171038E7F74C0809170
:104270007203877F7CC0809171038D7F6CC08091B9
:10428000710320C080917103877F65C080917203A4
:104290001EC0809172038D7F6AC0809171038F7EF2
:1042A0005AC0809171038F7D56C0809171038F7BBE
:1042B00052C00E94FE08809171038F774CC080919C
:1042C0007103877F8B7F47C0809172038D7F8E7FC4
:1042D0004EC08091710382FB222720F991E0922742
:1042E00090FB82F990FB83F936C080917203982F7E
:1042F000909591708E7F892B90FB81F938C08091C9
:10430000710386FB222720F991E0922790FB86F922
:1043100022C00E94FE088091710387FB222720F9AA
:1043200091E0922790FB87F916C081E001C080E000
:104330000E94950F1EC08091710384FB222720F9F3
:1043400091E0922790FB84F906C080917103982F29
:10435000909590FB80F9809371030BC0809172035C
:1043600083FB222720F991E0922790FB83F9809329
:10437000720380917103909172030E940E0F0E944C
:10438000FE0880E001C081E0DF91CF910895CF93D6
:10439000DF9386319C4741F5EB010E94B60D982FC3
:1043A0008D812091040130910501882379F09A7A5A
:1043B00081E009F480E080934303911102C069E237
:1043C00001C065E3C9010E94C1230AC08091430373
:1043D000811102C069E201C065E3C9010E94CF23D7
:1043E0000E941E0E80E001C081E0DF91CF91089510
:1043F0000F931F93CF93DF93C42FD22FFC0185819E
:104400008823B1F0409346030E94CB249093450348
:104410008093440380E28C0F883008F04DC0C77051
:1044200081E001C0880FCA95EAF70E94790644C06E
:1044300080914603481330C0809144039091450316
:104440000E94E324883C910538F510E21D0FCD173A
:10445000B9F080E28C0F883040F4C77081E001C071
:10446000880FCA95EAF70E948006183010F581E09F
:104470009D2F977001C0880F9A95EAF70E947906E0
:10448000802F0E946F061830B8F4D77081E001C009
:10449000880FDA95EAF70AC080E28C0F883060F462
:1044A000C77081E001C0880FCA95EAF70E948006B4
:1044B00003C0802F0E946F06DF91CF911F910F9153
:1044C00008950F93FC01E851FC47E730F10590F5A2
:1044D000CB01E756FF4F0C945C2C06E221EE41EE37
:1044E0006AE17CE723C007E225EE45EE6BE17CE75D
:1044F0001DC006E221EE40EE68E17CE717C007E24E
:1045000025EE44EE69E17CE711C006E221EE42EEC1
:104510006CE17CE70BC007E225EE46EE6DE17CE73F
:1045200005C008E221E045EE6EE17CE70E94F8213B
:1045300080E008C0FB018581882319F010924603B2
:1045400001C081E00F91089590934C0380934B0339
:104550000895E0914B03F0914C03309729F00190BE
:10456000F081E02D0995089580E008950E94A92228
:104570000895FC01A0914B03B0914C03109791F06A
:1045800080912901882341F08091710387FF04C045
:104590008081818386E08083CF011296ED91FC912A
:1045A000139709950895E0914B03F0914C033097D0
:1045B00039F022E0DC012C930480F581E02D09958F
:1045C0000895A3E0B0E0E7EEF2E20C94A32C209172
:1045D000490330914A0328173907A1F090934A0301
:1045E00080934903E0914B03F0914C03309751F0D5
:1045F00023E029839B838A830680F781E02DCE0107
:10460000019609952396E2E00C94BF2CA3E0B0E05C
:10461000ECE0F3E20C94A32C209147033091480383
:1046200028173907A1F09093480380934703E0913E
:104630004B03F0914C03309751F024E029839B8386
:104640008A830680F781E02DCE0101960995239695
:10465000E2E00C94BF2CFC01329680912901882362
:1046600031F08091710387FF02C09EE101C096E0A6
:1046700080E0915028F021912223D9F38F5FF9CF68
:104680000895662351F1209129012223E9F0209118
:10469000710327FF19C0462F4695469546954E3122
:1046A000E0F4677021E030E002C0220F331F6A950A
:1046B000E2F7FC01E40FF11D828190E02823392309
:1046C00081E0232B69F409C0FC0132960896219100
:1046D000621729F0E817F907D1F780E0089581E023
:1046E00008959C01FC0132969FEF80E041914617AE
:1046F00089F09F3F19F4411101C0982F8F5F8630D8
:10470000A9F79F3F39F0F901E90FF11D97FDFA95DF
:104710006283089508959C012A5F3F4FFC01428106
:10472000461301C01282019682179307B9F70895C4
:10473000262F2695269526952E3168F4FC01E20F4A
:10474000F11D677021E030E001C0220F6A95EAF7A1
:104750008281282B22830895262F2695269526953B
:104760002E3170F4FC01E20FF11D677021E030E0A2
:1047700001C0220F6A95EAF72095828128232283BF
:10478000089520912901222339F02091710327FFF8
:1047900003C00E94982308950E94712308952091D8
:1047A0002901222339F02091710327FF03C00E94C1
:1047B000AC2308950E948B23089520912901FC01C8
:1047C0003296222331F08091710387FF02C08EE17F
:1047D00001C086E0DF011D928A95E9F70895DC01AA
:1047E000FB0111969C9111978181981321C012961B
:1047F0008C911297882319F09281891319C013960E
:104800008C911397882319F09381891311C0159601
:104810008C911597882319F09581891309C01496F6
:104820009C91992339F081E02481291304C002C0AE
:1048300081E001C080E08170089508950E941D24E8
:10484000089583E080934D030E941E2408958111F2
:1048500002C081E001C082E080934D030E941E24CB
:1048600008950E942724089581E080934D030E94BB
:104870001E2408950E943424089508950E943D2422
:1048800008950E943E2408950E943D2408950E94A8
:104890003D2408950E943D240895CF930E9447240B
:1048A0000E94C1130E944424C0E08C2F0E94DF129A
:1048B000892B29F4CF5FCC30C1F780E001C081E0C3
:1048C000CF91089585B7806885BF85B7806885BF1B
:1048D00008951F920F920FB60F9211248F939F93FA
:1048E000AF93BF9380914E03811113C08091E20377
:1048F0009091E303A091E403B091E5034196A11DDB
:10490000B11D8093E2039093E303A093E403B0937B
:10491000E503BF91AF919F918F910F900FBE0F90C4
:104920001F9018958091EA03843031F10E9485042C
:1049300010924E0320E488E190E00FB6F894A89519
:10494000809360000FBE2093600083B7817F8460F6
:1049500083BF83B7816083BF7894889583B78E7F48
:1049600083BF0FB6F894A89580916000886180930A
:104970006000109260000FBE08950E94FE080E9421
:104980008D04089582E084BD93E095BD9AEF97BDB4
:1049900080936E0008952FB7F8948091E203909170
:1049A000E303A091E403B091E5032FBF08952FB76F
:1049B000F8946091E2037091E3038091E403909195
:1049C000E5032FBF08959C014FB7F8948091E2034F
:1049D0009091E303A091E403B091E5034FBF821BE4
:1049E000930B089578941F920F920FB60F92112493
:1049F0008F939F93AF93BF938091E2039091E303D2
:104A0000A091E403B091E5030196A11DB11D80932F
:104A1000E2039093E303A093E403B093E503BF9113
:104A2000AF919F918F910F900FBE0F901F9018958F
:104A300081E08093E00080E28093D8001092C9006A
:104A40008FE19EE40197F1F700C0000087E090EB52
:104A5000DC018093F3039093F403A093F503B093E8
:104A6000F6039CE088E10FB6F894A8958093600067
:104A70000FBE90936000FFCF9CE088E10FB6F894E2
:104A8000A895809360000FBE90936000FFCF809147
:104A90006F0308959B019091EA039430F1F48F70B5
:104AA0008093E9008FEF9091E800815095FD06C05A
:104AB00095ED9A95F1F700008111F5CF8091E8000E
:104AC00085FF0BC0BA01C90140E050E00E945A279F
:104AD0008091E8008E778093E800089543E050E0ED
:104AE000BC0182E00E944A25089546E050E0BC01E6
:104AF00082E00E944A250895CF93DF93EC018091D4
:104B00002901811105C048E050E0BE0181E00BC0E1
:104B10008091710387FF03C040E282E002C048E059
:104B200081E050E0BE010E944A2580E2FE01AFE430
:104B3000B3E001900D928A95E1F7DF91CF9108954E
:104B40008091E903811109C00E94E5280E94422951
:104B50008091E20084608093E20008951092E9035E
:104B600008950E943A2408956091E60381E061115E
:104B700001C080E00E94212408959091EA0381E021
:104B8000943009F080E06091E6030E9427240895A4
:104B900042E061EC81E00E945E2842E261EC82E04A
:104BA0000E945E289091EA0381E0943009F080E051
:104BB0006091E6030E94312408958091EC038330D4
:104BC00009F461C030F4813071F0823009F49BC087
:104BD00008958A3009F487C08B3009F46CC089309D
:104BE00009F0A9C020C08091EB03813A09F0A3C06D
:104BF0008091E800877F8093E8008091EF03909197
:104C0000F003892B21F460E28FE493E003C060E0BD
:104C100080E090E070E00E949F278091E8008B7711
:104C20008093E80008958091EB03813209F083C0FE
:104C30008091EF039091F003029708F07CC080917F
:104C4000E800877F8093E8008091E80082FD05C03E
:104C50008091EA038111F8CF6EC02091F30080911A
:104C6000F20090E0922B029731F48091F1008130B4
:104C700011F0863021F48091F10080936F038091D0
:104C8000E8008B7754C08091EB03813A09F053C060
:104C90008091EF039091F003892B09F04CC0809133
:104CA000E800877F8093E8008091E80080FFFCCFD8
:104CB0008091290137C08091EB038132E1F5809129
:104CC000EF039091F003892BB1F58091E800877F85
:104CD0008093E8000E9493288091ED03809329013E
:104CE0000E94FE0808958091EB03813221F58091A6
:104CF000E800877F8093E8000E9493288091EE036C
:104D00008093700308958091EB03813AA1F4809120
:104D1000E800877F8093E8008091E80080FFFCCF67
:104D2000809170038093F1008091E8008E778093EA
:104D3000E8000E949328089584B7877F84BF0FB648
:104D4000F894A8958091600088618093600010922B
:104D500060000FBE90E080E80FB6F8948093610089
:104D6000909361000FBE0E94342408950E94E528AC
:104D70000E944229E2EEF0E0808184608083789492
:104D80000E94CD2B089581E291E00E94A422089513
:104D90008091EA038530A9F48091EA03853079F4A3
:104DA0000E9492248091E8038823B1F30E944D244D
:104DB000882391F30E9444270E94FE08EDCF0E94B1
:104DC000BD24089508959A014091F1035091F20392
:104DD0000E94EB260895492F552743305105C9F00D
:104DE00060F44130510581F04230510509F044C072
:104DF0008BE390E042E455E043C041325105E1F0DD
:104E00004232510549F138C082E190E04DE755E06A
:104E100037C099278130910549F028F0029761F554
:104E2000EEE1F5E005C0EEE3F5E002C0E2E3F5E017
:104E3000849190E0AF0124C06115710541F06130AB
:104E40007105D1F489E090E04DE655E019C089E0A4
:104E500090E044E555E014C06115710541F0613002
:104E6000710551F486EB90E04FE855E009C084E409
:104E700090E045E456E004C080E090E040E050E07F
:104E8000F90151834083089580E189BD82E189BDA4
:104E900009B400FEFDCF8091D8008F7D8093D800AB
:104EA0008091E00082608093E0008091E00081FDCD
:104EB000FCCF0895A0E0B0E0E0E6F7E20C949D2C72
:104EC000EC018B017A010E94B228811133C0E114F8
:104ED000F10439F0F70180819181081B190BC80F8B
:104EE000D91FC12CD12C0115110519F18091E800B1
:104EF00085FD16C08091E8008E778093E800E1146C
:104F0000F10449F0F70180819181C80ED91ED18248
:104F1000C08285E00FC00E94B228882321F30AC016
:104F200089918093F10001501109FFEFCF1ADF0A38
:104F3000DACF80E0CDB7DEB7E8E00C94B92C209151
:104F4000F1033091F2032617370748F06115710518
:104F500039F42091E8002E772093E80001C0B901D0
:104F6000FC0120E06115710579F18091EA03882345
:104F7000F1F18530F1F18091E80083FD3CC0809132
:104F8000E80082FD2EC08091E80080FFEBCF2091E9
:104F9000F3008091F20090E0922B6115710551F0C1
:104FA0008830910538F421912093F1006150710906
:104FB0000196F3CF21E0089709F020E08091E80006
:104FC0008E778093E800CECF2111CFCF0AC0809199
:104FD000EA03882361F0853061F08091E80083FD69
:104FE0000AC08091E80082FFF2CF80E0089582E05D
:104FF000089583E0089581E008952091F1033091B0
:10500000F2032617370748F06115710539F420912E
:10501000E8002E772093E80001C0B901FC0120E0F0
:105020006115710591F18091EA03882309F440C06C
:10503000853009F43FC08091E80083FD3DC0809138
:10504000E80082FD2FC08091E80080FFE9CF209129
:10505000F3008091F20090E0922B6115710559F0F8
:105060008830910540F424912093F10031966150ED
:1050700071090196F2CF21E0089709F020E08091B4
:10508000E8008E778093E800CBCF2111CCCF0AC007
:105090008091EA03882361F0853061F08091E80017
:1050A00083FD0AC08091E80082FFF2CF80E008957E
:1050B00082E0089583E0089581E00895982F973065
:1050C00068F59093E900981739F07091EC00209101
:1050D000ED005091F00003C0242F762F50E021FD09
:1050E00002C09F5FECCF3091EB003E7F3093EB002E
:1050F0003091ED003D7F3093ED003091EB00316059
:105100003093EB007093EC002093ED005093F0008F
:105110002091EE0027FDE5CF80E008958F70809309
:10512000E90081E008958091EB0387FF11C0809131
:10513000E80082FD05C08091EA038111F8CF11C01B
:105140008091E8008B770BC08091EA03882349F0B7
:105150008091E80080FFF8CF8091E8008E778093FF
:10516000E80008952091E4003091E50095E6409133
:10517000EC00842F817040FF23C08091E80080FD07
:105180001DC08091EA03882399F0853099F08091C1
:10519000EB0085FD11C04091E4005091E50024171B
:1051A000350729F3915011F09A01E1CF84E0089579
:1051B00082E0089583E0089581E0089580E00895F5
:1051C0004091E80042FFDDCF08950E9454290E94DB
:1051D0005C29E0EEF0E0808181608083E8EDF0E022
:1051E00080818F77808319BCA7EDB0E08C918E7F92
:1051F0008C9380818F7E80831092E90308950F93B2
:105200001F93CF93DF930E9454290E945C29C8ED1D
:10521000D0E088818F7788838881806888838881BF
:105220008F7D888319BC1092EA031092E6031092D6
:10523000E8031092E70300EE10E0F80180818B7F15
:10524000808388818160888342E060E080E00E9402
:105250005E28E1EEF0E080818E7F8083E2EEF0E078
:10526000808181608083808188608083F801808173
:105270008E7F8083888180618883DF91CF911F91A9
:105280000F910895E8EDF0E080818F7E8083E7ED57
:10529000F0E080818160808384E082BF81E0809340
:1052A000E9030E94FF280895E8EDF0E080818E7FF9
:1052B00080831092E20008951092DA001092E100CB
:1052C00008951F920F920FB60F9211242F933F93C0
:1052D0004F935F936F937F938F939F93AF93BF93FE
:1052E000EF93FF938091E10082FF0BC08091E20079
:1052F00082FF07C08091E1008B7F8093E1000E94D4
:10530000CC2B8091DA0080FF1FC08091D80080FFF5
:105310001BC08091DA008E7F8093DA008091D900E3
:1053200080FF0DC080E189BD82E189BD09B400FE26
:10533000FDCF81E08093EA030E94A02505C019BC3F
:105340001092EA030E94AE258091E10080FF19C00F
:105350008091E20080FF15C08091E2008E7F8093F3
:10536000E2008091E20080618093E2008091D800A9
:1053700080628093D80019BC85E08093EA030E9484
:10538000B4258091E10084FF30C08091E20084FF69
:105390002CC080E189BD82E189BD09B400FEFDCF4A
:1053A0008091D8008F7D8093D8008091E1008F7E1E
:1053B0008093E1008091E2008F7E8093E2008091F3
:1053C000E20081608093E2008091E603882311F07F
:1053D00084E007C08091E30087FD02C081E001C046
:1053E00083E08093EA030E94BD258091E10083FF62
:1053F00029C08091E20083FF25C08091E100877F72
:105400008093E10082E08093EA031092E6038091AA
:10541000E1008E7F8093E1008091E2008E7F809397
:10542000E2008091E20080618093E20042E060E06F
:1054300080E00E945E288091F00088608093F000F8
:105440000E94B125FF91EF91BF91AF919F918F91F4
:105450007F916F915F914F913F912F910F900FBE70
:105460000F901F9018951F920F920FB60F92112454
:105470002F933F934F935F936F937F938F939F935C
:10548000AF93BF93CF93DF93EF93FF93C091E90066
:10549000CF708091EC00D82FD17080FDD0E81092B1
:1054A000E9008091F000877F8093F00078940E945B
:1054B000772A1092E9008091F00088608093F000D4
:1054C000CD2BCF70C093E900FF91EF91DF91CF9189
:1054D000BF91AF919F918F917F916F915F914F910C
:1054E0003F912F910F900FBE0F901F901895AAE239
:1054F000B0E0EDE7FAE20C94A22CEBEEF3E0809141
:10550000F100819323E0E33FF207C9F70E94DD2514
:105510008091E80083FF2EC18091EB039091EC0312
:10552000492F50E04A30510508F024C1FA01E056F5
:10553000FF4F0C945C2C803821F0823809F01AC19E
:1055400008C08091E7039091E803992389F0826075
:105550000FC08091EF038F70873008F00BC18093EC
:10556000E9008091EB0085FB882780F91092E90023
:105570009091E800977F9093E8008093F10010925B
:10558000F100D1C0282F2D7F09F0F4C0882319F035
:10559000823061F0EFC08091ED03813009F0EAC004
:1055A000933009F080E08093E8032EC08091ED03F2
:1055B00081112AC08091EF038F702FEF280F2630C2
:1055C00008F0D8C08093E9002091EB0020FF1CC0B8
:1055D000933021F48091EB00806214C09091EB0035
:1055E00090619093EB0021E030E0A90102C0440FEC
:1055F000551F8A95E2F74093EA001092EA008091E5
:10560000EB0088608093EB001092E9008091E80045
:10561000877F8093E8000E949328ACC08111AAC0C4
:105620001091ED031F778091E3008078812B8093A8
:10563000E3008091E800877F8093E8000E94932830
:105640008091E80080FFFCCF8091E3008068809328
:10565000E300111102C082E001C083E08093EA03FD
:1056600089C08058823008F085C08091ED03909108
:10567000EE038C3D53E0950779F583E08A838AE257
:1056800089834FB7F894DE01139620E03EE051E2A3
:10569000E32FF0E050935700E49120FF03C0E29520
:1056A000EF703F5FEF708E2F90E0EA3010F0C796FA
:1056B00001C0C0968D939D932F5F243149F74FBF52
:1056C0008091E800877F8093E8006AE270E0CE0175
:1056D00001960E949F2716C06091EF037091F0031E
:1056E000AE014F5F5F4F0E94E326BC01892B09F496
:1056F00041C09091E800977F9093E80089819A815A
:105700000E94FD278091E8008B778093E80032C0EB
:10571000803881F58091E800877F8093E800809150
:10572000E6038093F1008091E8008E7772CF8111BB
:1057300021C08091ED039091EE0399270297D4F454
:105740008091E800877F8093E8008091ED0380934B
:10575000E6030E9493288091E603811106C08091A0
:10576000E30087FD02C081E001C084E08093EA038A
:105770000E94C8258091E80083FF0AC08091E8005C
:10578000877F8093E8008091EB0080628093EB003C
:10579000AA96E3E00C94BE2C0895CF938091EA037F
:1057A0008823A1F0C091E900CF709091EC00892F7F
:1057B000817090FD80E8C82B1092E9008091E8008C
:1057C00083FD0E94772ACF70C093E900CF9108959E
:1057D000DB018F939F930E94802CBF91AF91A29F7A
:1057E000800D911DA39F900DB29F900D11240895DF
:1057F000991B79E004C0991F961708F0961B881F23
:105800007A95C9F78095089587FB082E062687FDAF
:10581000819567FD61950E94F82B0EF4919507FC28
:1058200081950895AA1BBB1B51E107C0AA1FBB1F8E
:10583000A617B70710F0A61BB70B881F991F5A951C
:10584000A9F780959095BC01CD01089597FB072E8F
:1058500016F4009407D077FD09D00E94122C07FCA3
:1058600005D03EF4909581959F4F08957095619570
:105870007F4F0895A1E21A2EAA1BBB1BFD010DC08C
:10588000AA1FBB1FEE1FFF1FA217B307E407F507F0
:1058900020F0A21BB30BE40BF50B661F771F881FCC
:1058A000991F1A9469F760957095809590959B0162
:1058B000AC01BD01CF010895EE0FFF1F0590F491DB
:1058C000E02D09940E946A2C332312F48A1B9B0B4F
:1058D0000C947B2CA29FB001B39FC001A39F700DBD
:1058E000811D1124911DB29F700D811D1124911DE8
:1058F00008950E946A2CB7FF0895821B930B0895A8
:105900000E946A2CA59F900DB49F900DA49F800DBE
:10591000911D11240895B7FF0C94802C0E94802CB7
:10592000821B930B08952F923F924F925F926F923A
:105930007F928F929F92AF92BF92CF92DF92EF921F
:10594000FF920F931F93CF93DF93CDB7DEB7CA1BA0
:10595000DB0B0FB6F894DEBF0FBECDBF09942A88CB
:10596000398848885F846E847D848C849B84AA8473
:10597000B984C884DF80EE80FD800C811B81AA8100
:10598000B981CE0FD11D0FB6F894DEBF0FBECDBFCB
:10599000ED0108950F93083090F0982F872F762F00
:1059A000652F542F432F322F22270850F4CF220F78
:1059B000331F441F551F661F771F881F991F0A95A5
:1059C000B2F70F91089597FB10F8169400080F9303
:1059D000083098F00850232F342F452F562F672F6B
:1059E000782F892F902DF4CF0594979587957795EB
:1059F000679557954795379527950A95AAF70F917B
:105A000008958F929F92AF92BF92CF92DF92EF92C2
:105A1000FF92CF93DF93EC01688179818A819B812A
:105A2000611571058105910521F464E279ED8BE53D
:105A300097E02DE133EF41E050E00E94D82D49017D
:105A40005A019B01AC01A7EAB1E40E94802C6B01D2
:105A50007C01ACEEB4EFA50194010E948E2CDC0118
:105A6000CB018C0D9D1DAE1DBF1DB7FF03C001975F
:105A7000A109B04888839983AA83BB839F77DF916C
:105A8000CF91FF90EF90DF90CF90BF90AF909F901D
:105A90008F9008950E94012D089580E091E00E946A
:105AA000012D0895A0E0B0E08093000190930101E2
:105AB000A0930201B09303010895FC0141505040AE
:105AC00030F001900616D1F73197CF01089588275D
:105AD00099270895FB01DC0104C08D910190801984
