:100000000C9449060C9481060C9481060C9481068C
:100010000C9481060C9481060C9481060C94810644
:100020000C9481060C9481060C94001B0C94421ACB
:100030000C94AB2C0C9481060C9481060C948106D4
:100040000C9481060C9481060C9481060C94810614
:100050000C9481060C945E2C0C9481060C94810601
:100060000C9481060C9481060C9481060C948106F4
:100070000C9481060C9481060C9481060C948106E4
:100080000C9481060C9481060C9481060C948106D4
:100090000C9481060C9481060C9481060C948106C4
:1000A0000C9481060C9481060C9481068E09020A38
:1000B0009609600964099A0967099D09A8097209E6
:1000C000F8097609AC097A09B009DA097E09B40998
:1000D000E4098409BA09C4096B09A1096E09A409D4
:1000E0008909BF09D009F009F2095C0992090B0AD4
:1000F000310A370A250A2B0A3D0A430A490A640BCA
:10010000640B970B970B420C600C980D980D650CC7
:10011000D80CEA0CEA0C980AFF0D040E090E0E0E1C
:10012000130E180E1D0E220E270E2C0E330E360E39
:10013000390E3C0E3F0E420E450E480E4B0E500E31
:10014000AD14C714CE14B515B51506151215211525
:10015000B515291550157415A715AA154E1875183B
:100160002A1A75182A1AC118E4182A1AE519F51955
:100170001E0F0500047F3F1F643214643214783C64
:100180001E1E140A05FD377A585A000004E6D6B43C
:10019000460200210116000000742FE5A3E0126B57
:1001A000039F5D003D8889C65436C3174FE4E9A517
:1001B000387F8BE983D960B9FC14E5E3EDDB11AA44
:1001C000910E6BD53791909D5E400268662DCD3FB4
:1001D000139BF9ECE52FEAFD5C311E4F7F43F61CC3
:1001E00075A00F10B9F58084783162C3A6F7CA1DD7
:1001F0008E9792035870FE22690616636382A2BB33
:10020000DD404FFE2D6EFB3B2B0063E701CA415BD7
:10021000B0478D3717F047741253A719BC90ED42C1
:100220000A84656CC4996C5A239788B9A68879D1D9
:100230004862DEBEB02C7342F59691884A3FFE15A7
:1002400085704C4BF4429AEA5A655C96E48387F5D4
:1002500087D706D825F30E6783DA64744E92106D43
:100260007B56F236722D809F72E8A6891D54ADAE82
:10027000D66210D1EF7BE779318D0B84391B83591E
:100280000221670BEF9DC7E9F45CC42CC37BF23FEE
:10029000489C79EC8F0EC7E069A3D78557D2C9284F
:1002A000759185F8D786340270A1D23770F09E6AB6
:1002B000723B67AA6EAEF918B8844F58B503FDEECD
:1002C000C851748422A24053B7CBBB33FABDD826A1
:1002D00022A1D2ACBB0569FA1173E56B7FEF88EC04
:1002E00001F438BA867E62312F90C452D008520091
:1002F00007F26608EF8F8BFD10CFAA4AB2B02936FD
:10030000318461DFCF34597A7D0FD56B35103FB81A
:100310008D63D4B9790DA347D2017B83746710191B
:10032000E9160F2710BB3420990F6BB93E74B078D3
:100330006CD43DAB8FF6D41CEDA9E6D858AFFBE2E8
:100340008496868F01C9636D724F9BE8ADA88E4B72
:1003500003E915023C2C768F4BC1BB098A2A949382
:10036000911935D4312202A70550D7795C671FC196
:100370000069A6591071BE965EDA9CAC0C14928985
:10038000FD5A750CEE6EC084D7BE6E192C8897A4EA
:100390003DD3C8AAB596CD40DA0C6ADB9467BF900E
:1003A0009504699D5E66E03FFA49AA7F00D09955A1
:1003B0004D5E9136FA1FCFAE8C01DBA3E136F18A98
:1003C000EA0AB4F0729F4968BF3AB8FBAFD440491B
:1003D000505977D64588EE9ED9D7D523858030CB26
:1003E000B065641A6743FB08A1A30454DF1097AFFC
:1003F000072787E8E484779D9AD677D4F80C46F9E6
:1004000013D864E82A064201EB025ACA262307CD14
:10041000BFBDA337BE9ACB6EA97D0E28F7E848A5CD
:10042000398A837F90838448D2D1BCED087226F646
:100430005868A130E72B6A0AEDE7205E8E2322255B
:1004400015D652EA8F2AE60316EAA08863E05480A4
:1004500017998956B8434CB348460BD84CE72B65DF
:10046000958E374A646E6CC796A46D3B3A4BDFDEBF
:10047000F1CF7CC0B3C3F96C1776D1359BE43679E4
:100480005386A5DF80BBC0A441415FF05FD583FCEC
:1004900036F1679B11AD782DD5B23BB03087F8BDF2
:1004A00063FC858E907B60431D9E22F2D56C712388
:1004B000768ADD254EA2BE7402D58109FBC98077FC
:1004C0006195A664BCC4DDFA910AD90BBBF746015D
:1004D000DFE7C72F7316A79D2471AC4A3D4E22D982
:1004E000291D13FEB4E17C4A27A307FBD89629B542
:1004F0008399D9BA9A2EBAF8D1B77A7A1B89444F20
:10050000552CFC0231DB8CB4898E81B7279033D017
:10051000C88B9C155A2A6E735C3DA932A16740B402
:100520004C4A839329A242B6515AA8F451822DB362
:10053000CE84F96864CD52BC262E04F991077C4F15
:1005400023DB53000097EBAFAA31AA99D00001BB7F
:1005500007EC240000C7FB95A2B1C467FB020000B2
:10056000000004595A05010902A10185020901A1EF
:100570000005091901290815002501950875018153
:10058000020501093009311581257F950275088121
:100590000609381581257F950175088106050C0A25
:1005A00038021581257F950175088106C0C00501B7
:1005B0000980A101850319012AB700150126B7009A
:1005C000950175108100C0050C0901A10185041970
:1005D000012AA002150126A002950175108100C014
:1005E00005010906A1018506050719E029E715009F
:1005F00025019508750181020507190029EF1500ED
:10060000250195F075018102050819012905950557
:1006100075019102950175039101C00660FF0961A2
:10062000A1010962150026FF0095207508810209C5
:1006300063150026FF00952075089102C005010989
:1006400006A101050719E029E715002501950875A0
:100650000181029501750881010507190029FF151F
:100660000026FF0095067508810005081901290577
:1006700015002501950575019102950175039101FC
:10068000C009025B00030100A0FA09040000010395
:100690000101000921110100012244000705810325
:1006A00008000109040100020300000009211101F2
:1006B0000001222200070582032000010705030331
:1006C00020000109040200010300000009211101BA
:1006D000000122B600070584032000011201000278
:1006E000000000084D59964D0100010203011C0352
:1006F0007600690061006C003A0066003600340044
:1007000063003200620033006300000012034D00FA
:1007100065006C006F00640079003900360000004D
:100720000A0359004D0044004B0000000403090473
:1007300000000000000000000000000000000000B9
:1007400000000000000000000000000000000000A9
:10075000000000007E0F00D4FFFFFFC700000078FC
:1007600000000000000000002A2B2800000000000C
:100770000000000000000000000000290000000050
:100780002C1E3420212224342627252E362D3738BE
:10079000271E1F202122232425263333362E3738C7
:1007A0001F0405060708090A0B0C0D0E0F10111285
:1007B000131415161718191A1B1C1D2F3130232D51
:1007C000350405060708090A0B0C0D0E0F1011124F
:1007D000131415161718191A1B1C1D2F3130354C00
:1007E0002223252628292A2C2D2F3032333536383E
:1007F0003A3B3D3E4042434547494A4C4E50515397
:100800005557595A5C5E6062646668696B6D6F71BA
:10081000737577797B7D7F81838587898A8C8E90BC
:10082000929496989A9C9E9FA1A3A5A7A8AAACAEC5
:10083000AFB1B3B4B6B8B9BBBCBEBFC1C2C3C5C605
:10084000C7C9CACBCCCDCED0D1D2D2D3D4D5D6D7AE
:10085000D7D8D9D9DADADBDBDBDCDCDCDCDCDDDDEC
:10086000DDDDDCDCDCDCDCDBDBDBDADAD9D9D8D7DC
:10087000D7D6D5D4D3D2D2D1D0CECDCCCBCAC9C77E
:10088000C6C5C3C2C1BFBEBCBBB9B8B6B4B3B1AFB5
:10089000AEACAAA8A7A5A3A19F9E9C9A9896949255
:1008A000908E8C8A89878583817F7D7B797775732C
:1008B000716F6D6B6968666462605E5C5A5957550A
:1008C0005351504E4C4A4947454342403E3D3B3AC6
:1008D0003836353332302F2D2C2A2928262523224D
:1008E00001000100D7038C26E12B0000020002006A
:1008F000D3038C26E12B000003000100D8038C26D3
:10090000E12B000004000200BD038C26E12B8226AF
:1009100005000100D9038C26E12B0000060002002F
:10092000BF038C26E12B000007000200D5038C26B4
:10093000E12B000008000100DA038C26E12B000007
:1009400009000200C1038C26E12B5D260A0002008B
:10095000C3038C26E12B5D260B000200C5038C2609
:10096000E12B5D260C000200C7038C26E12B5D26DF
:100970000D000200C9038C26E12B5D260E0002004B
:10098000CB038C26E12B5D260F000200CD038C26C5
:10099000E12B5D2610000200CF038C26E12B5D26A3
:1009A00011000200D1038C26E12B5D26120002000B
:1009B000DB038C26E12B000013000200DD038C26F4
:1009C000E12B000014000100DF038C26E12B000066
:1009D000150000000000E42A612B0000E000E300A5
:1009E000E20051005000E4002C002152E600E1003A
:1009F00000001D001B00060019000500110010007A
:100A0000390004001600070009000A000B000D0061
:100A10000E002B0014001A000800150017001C001F
:100A200018000C0035001E001F00200021002200CD
:100A300023002400250029003A003B003C003D0033
:100A40003E003F00400041005800630062004E003D
:100A5000560000004F000000000000005B005A003C
:100A60005200E500380059003700360057005E009C
:100A70005D000000280034005C0033000F0000001F
:100A800061006000310030002F005F001300120091
:100A900055005400530000002E002D002A002700AE
:100AA00026004B004D004A004800450044004C0021
:100AB000430042000100E7000100DA00DB00010012
:100AC000010001000100010000000100010001001F
:100AD000010001000100010001000100010001000E
:100AE00001000100010001000100010022782178CD
:100AF0002A782978247823782678257820782B7806
:100B00002C782D782E782F78307831783278007CD8
:100B1000BE00BD000100027803780478AC00AE008E
:100B2000010001000100010001000000DC000000E4
:100B3000000000000100CE00D9000100010001000A
:100B4000010001000100D000D300000001000100FD
:100B5000CF00010001000000D300CD000100010022
:100B60000100D1002778287801008900B200000038
:100B7000010001000100010033780100B0004700CE
:100B80004604A900AA004900A800AB000001010129
:100B9000010101010101020202020202020202033A
:100BA000030303030303030404040404040405050A
:100BB00005050506060606060707070707080808CD
:100BC00008090909090A0A0A0B0B0B0C0C0C0D0D7C
:100BD0000D0E0E0E0F0F0F10101111111212131314
:100BE0001414151516161717181819191A1A1B1B8D
:100BF0001C1D1D1E1E1F20202122222324242526E9
:100C000026272829292A2B2C2D2D2E2F3031323220
:100C1000333435363738393A3B3C3D3E3F4041422C
:100C2000434445464748494A4C4D4E4F5051535412
:100C3000555658595A5B5D5E5F61626465666869C6
:100C40006B6C6D6F7072737577787A7B7D7E808246
:100C5000838587888A8C8E8F91939596989A9C9E8F
:100C6000A0A2A3A5A7A9ABADAFB1B3B5B7BABCBE9F
:100C7000C0C2C4C6C9CBCDCFD1D4D6D8DBDDDFE26C
:100C8000E4E7E9EBEEF0F3F5F8FAFDFFFFAA7F5594
:100C9000400011241FBECFEFDAE0DEBFCDBF04B6A7
:100CA00003FE18C08091080490910904A0910A04E1
:100CB000B0910B048730904BA740B04B59F4109281
:100CC00008041092090410920A0410920B04E0E048
:100CD000F8E3099511E0A0E0B1E0E0EFFDE602C025
:100CE00005900D92A83BB107D9F724E0A8EBB1E03D
:100CF00001C01D92A830B207E1F70E94740E0C9457
:100D0000F6360C940000A4E0B0E0E9E8F6E00C94BC
:100D10006236FC012481222309F4E2C77C0161E0F0
:100D20000E94B8338C01F7018581882309F452C1F0
:100D3000C80197578038910508F0BEC0D02EFFE05B
:100D4000F01708F411C48FEF93E00E94353581113C
:100D50000BC40DEF11E0DD2071F0011524E0120746
:100D600009F402C4C8010E943535811101C0DA942A
:100D70000F5F1F4FF0CF19821A821B821C82AA2498
:100D8000AA9468016FEFC61AD60AC8010E943535C9
:100D900089831A82882309F4E7C3813009F087C068
:100DA000480172E0870E911CC6010E943535B82EAD
:100DB0008A83882309F4D8C38FEF8B0D833060F4C6
:100DC000680183E0C80ED11CC4010E9435358B83B5
:100DD00081116DC08601D5CF8BEF8B0D8330C0F5AF
:100DE000380193E0690E711CC4010E9435358B8374
:100DF000811102C06301EECF6801E4E0CE0ED11C88
:100E0000C3010E9435358C83882321F38B819C811B
:100E10008130FFEF9F0718F0182F00E001C08C0110
:100E200026E0B21669F067E0B61671F0C8010E94BC
:100E300066298091DB039091DC030E94892E04C017
:100E4000C8010E946629C6CFC8010E944129C2CFAD
:100E500074E0B71611F06401BDCFC4010E943535AE
:100E6000B82E680184E0C80ED11CC80103960E9408
:100E70003535BB2009F478C3882309F475C3282FBE
:100E800030E021503109A29EA001A39E500D1124F3
:100E90008B2D90E00197840F951F019708F49ACF4E
:100EA000EFE9FFE03197F1F700C00000F6CFCE0187
:100EB00001960E94BF168ECF023028E7120709F470
:100EC0006EC058F4011578E7170791F0013088E7F4
:100ED000180709F07FC080E00CC0043098E71907BC
:100EE00009F444C068F00530F8E71F07C9F072C084
:100EF00085E00E94802A809198030E947A2A34C358
:100F000080919803982F96959695969549F1915EC4
:100F1000990F990F990F8770892B8093980314C0AC
:100F200090919803892F8695869586958F5F8F710E
:100F30009770863008F04BC0880F880F880F892B78
:100F40008093980380919803887F91E009F490E062
:100F50008091980390FB80F9809398030E947A2AED
:100F60008091980386958695869523C02091980355
:100F7000822F869586958695482F50E045305105FD
:100F800054F48F5F982F990F990F990F822F8770C4
:100F9000892B80939803809198038160DDCF8091A5
:100FA000980380FF09C08E7F809398030E947A2A5D
:100FB00080E00E94D829D8C2816080939803813054
:100FC00019F489E08093980380919803C7CF909398
:100FD0009803B8CF8091D80380FF45C10E949F2C11
:100FE0006C01F70185818823B1F180911A0182FF9C
:100FF00008C020EF31E040E0B60180E090E00E94C0
:10100000942E0431FCE71F07A9F005312CE71207E5
:1010100051F003316CE71607A1F480911A01816049
:1010200080931A010EC080911A01982F909590FB21
:1010300080F903C080911A018E7F80931A010E946B
:10104000562EC80190528115904358F51092E40332
:101050001092E30308C1013E110521F480911A01A9
:101060008F7E06C0053E110531F480911A018F7DF7
:1010700080931A0116C0C80190528115904388F4DC
:1010800080911A0182FFEFC08091DA0381FDEBC0ED
:1010900020EF31E040E0B60180E090E00E94942E25
:1010A000E2C080911A0180FFDEC0F701858108321D
:1010B000110538F40E311105B8F40430110578F437
:1010C000C5C00933110538F40D32110590F40B3207
:1010D000110579F0BBC00436110559F0B7C09091E5
:1010E000D80394FDB3C009C09091D80393FDAEC05E
:1010F00004C09091D80392FDA9C0882309F49FC031
:1011000020919C038091F602982F922B392F3D7FDE
:1011100079F11092E4031092E3033091D80331FD8A
:1011200027C0F80123E0F695E7952A95E1F7EE71DF
:10113000FF27E356FC4F98012F70332781E090E0A2
:1011400002C0880F991F2A95E2F78095909520811B
:1011500031818223932391838083A70160E0C801BA
:101160000E94792E8091F6028D7F0E94D62463C062
:1011700037E0F701A0EFB1E001900D923A95E1F769
:101180001092F5011092F3011092F2014091E303E5
:101190005091E40304171507B1F53091D80335FFDA
:1011A00032C040911A0141FF02C036FF2CC040916D
:1011B000E1035091E203B601641B750B683C7105B5
:1011C00010F521FF08C080911A01806180931A01F7
:1011D00082E00E94FF2480919C0385FF08C08091DB
:1011E0001A01806280931A0180E20E94FF246091BC
:1011F0001A0166956170A7018091E3039091E40361
:101200000E94792EB1C19695917020911A0190FBA0
:1012100021F920931A018D7F0E94D6241093E403B4
:101220000093E303D092E203C092E10380911A019C
:10123000846080931A0182E00E940D2595C1970178
:1012400040E0B601C8010E94942E8EC1882359F057
:101250001092E4031092E303F801E851FC47E730F1
:10126000F10568F4EEC0F801E851FC47E730F105FC
:1012700008F4E7C0F7012581222309F4A7C41092DE
:10128000E703C8019057839708F00CC184E090E011
:101290000E9443359093150280931402F801E150A7
:1012A000F047E232F10520F4EA5AFF4F0C9442363F
:1012B000809114028160ACC0809115028860B4C036
:1012C000809114028260A4C08091140220C0809199
:1012D000140288609DC0809115021EC08091150285
:1012E0008260A2C080911402806192C08091140239
:1012F00080628EC08091140280648AC00E94BE1EEB
:1013000080911402806884C0809114028860846097
:101310007FC0809115028260816086C08091140236
:101320008E7F76C080911502877F7EC080911402E7
:101330008D7F6EC08091140220C080911402877F3F
:1013400067C0809115021EC0809115028D7F6CC010
:10135000809114028F7E5CC0809114028F7D58C0F2
:10136000809114028F7B54C00E94BE1E8091140293
:101370008F774EC080911402877F8B7F49C0809108
:1013800015028D7F8E7F50C08091140282FB222730
:1013900020F991E0922790FB82F990FB83F938C005
:1013A00080911502982F909591708E7F892B90FBDC
:1013B00081F93AC08091140286FB222720F991E03E
:1013C000922790FB86F924C00E94BE1E80911402D1
:1013D00087FB222720F991E0922790FB87F918C01C
:1013E00061E001C060E08EE090E00E9459351EC0CF
:1013F0008091140284FB222720F991E0922790FB30
:1014000084F906C080911402982F909590FB80F982
:10141000809314020BC08091150283FB222720F9D0
:1014200091E0922790FB83F980931502609114025A
:101430007091150284E090E00E9477350E94BE1EF4
:1014400093C0E858FF4F0C94423606E221EE41EE7D
:101450006AE17CE723C007E225EE45EE6BE17CE71D
:101460001DC006E221EE40EE68E17CE717C007E20E
:1014700025EE44EE69E17CE711C006E221EE42EE82
:101480006CE17CE70BC007E225EE46EE6DE17CE700
:1014900005C008E221E045EE6EE17CE7C7010E944D
:1014A000882D62C00631FCE71F0709F06FC021E0FC
:1014B00080919C03982F9A7A3091D70330FF04C013
:1014C000482F447409F090E031FF04C0482F417167
:1014D00009F090E032FF04C0482F487809F090E00E
:1014E00033FF02C0827261F42223A1F081E09111E6
:1014F00001C080E08093BA01992331F065E305C013
:10150000222341F01092BA0169E28FE692E00E9434
:10151000FC2C0BC08091BA01882311F065E301C057
:1015200069E28FE692E00E94D42C0E946C251CC0D8
:101530008091900380FF5DC3282F2E7F209390031E
:1015400030919103409192035091930360919403E1
:101550007091950380919603909197030E945F305C
:10156000109207040E9405308091D302877009F41D
:10157000B7C3F7018581882309F4B2C380911502AE
:1015800082FFAEC382E00E940D25AAC30737FCE7A5
:101590001F0709F495C308372CE7120709F494C311
:1015A000F70185818823E9F10330FCE71F0729F162
:1015B00048F401156CE7160791F001307CE7170736
:1015C00011F12FC00B358CE7180741F10C359CE762
:1015D0001907E1F00A351C4721F581E020C00E947F
:1015E000BE1EFFEF24E36CE0F15020406040E1F7C5
:1015F00000C000000E943A2CB7CF6FEF7FEF80E071
:1016000090E00E9477350E948634AECF809115021B
:1016100082FB882780F991E0892701C080E00E9441
:101620002425F701858100811181882349F0C801B3
:101630000E940A1CD82E682FC8010E947A1C04C080
:10164000C8010E94461CD82EB8018D2D0E94F022A0
:101650000E940D23D82E092F982EF701B580C68041
:10166000C2949FE0C9228091D3028770E9F0BB2029
:10167000D9F0802F807F803451F080E28D0D88304A
:1016800098F0C11004C0802F807E803269F0809174
:10169000150282FF09C082E00E940D258091D302CD
:1016A0008770AA24A3948111A12C802E82948FE0AC
:1016B0008822882D90E08C30910508F039C2FC0119
:1016C000E158FF4F0C944236102F1F70802F807FFF
:1016D00011F01295107FBB20B9F0112309F408C254
:1016E00080E28D0D883010F0911006C080919C032F
:1016F000182B10939C0305C080919B03182B10930B
:101700009B030E946C25F4C18D2D0E94EB1F1123B9
:1017100009F40EC280E28D0D883088F1992079F1AC
:10172000109580919B03182310939B032BC0102FBF
:101730001F70802F807F803211F01295107F9920CA
:1017400029F0F1E09F1609F46BC076C08091150274
:1017500082FD1BC0BB2069F0112339F080919C03EE
:10176000182B10939C030E946C2580E00E944F2050
:10177000DFC180E00E94EB1F112309F4D9C1812F42
:101780000E94FF240E946C25D3C1BB2081F1CC2094
:1017900009F46AC021E0C21212C08091F6028123CE
:1017A000181709F4C5C10E949F2C9093F5028093ED
:1017B000F4028091F602182B1093F602B9C18091C1
:1017C000D903823008F4B4C1C812B2C1812F0E947B
:1017D000091F812F0E94EA248091D002912F982323
:1017E000191709F4A5C1182B1093D002A1C1CC2060
:1017F00069F08091D903823008F49AC161E0C61281
:1018000097C180919C03812309F492C1812F0E948A
:10181000021F812F0E94EA24812F0E94D02588C1B7
:101820008091DF03BB2021F08C1508F481C11CC01E
:10183000C81608F07DC122C0BB20D1F0CC20A1F099
:1018400020E0F7014081518162817381848195811B
:101850000E9493338091DA0381FD4AC1F7018681AA
:1018600080FF46C18F708683812F0E94091F60C14F
:10187000CC2021F0F9E39F124BC145C1812F0E947A
:10188000021F56C1802F86958695837019F081308E
:1018900061F04EC1BB2021F08D2D902F937002C0BE
:1018A00080E090E00E94562D4BC1BB2021F08D2D91
:1018B000902F937002C080E090E00E94312D40C1D3
:1018C0006B2D8D2D0E94131F3BC1802F8370A1F5BE
:1018D000B11032C14D2D429546954770440F440FCB
:1018E0002D2D2F7030E0C901042E01C0880F0A94FD
:1018F000EAF7D4FE08C02FE030E001C0220F4A957D
:10190000EAF7209501C020E0302F369536953370E8
:10191000323069F040F44091F702313019F0822BF7
:10192000842302C0842B822B0E94ED1C05C1282B2E
:101930008091F7028227F8CFBB2019F0802F8170A9
:1019400001C08695882309F4F7C04D2D4295469530
:101950004770440F440F2D2D2F7030E0C901042E25
:1019600001C0880F0A94EAF7D4FE08C02FE030E0E7
:1019700001C0220F4A95EAF7209501C020E0302FE0
:10198000369536953370323051F070F44091D50170
:10199000313019F0822B842308C0842B05C0282BFA
:1019A0008091D501822701C0822B0E94AF1CC4C048
:1019B000102F1F70BB2039F0812F0E94E11C8D2D4C
:1019C0000E94091FB9C08D2D0E94021F812F0E9405
:1019D000D41CB2C08D2D22EF921639F1291538F0A2
:1019E00060EF961659F071EF9716B9F17DC093EF3D
:1019F000991609F1E4EF9E1661F176C08091DF033C
:101A0000BB2021F0C81608F093C003C08C1508F461
:101A10008FC0202F2F7181E090E001C0880F2A95A0
:101A2000EAF79091D501892711C0802F8F71BB20D3
:101A300009F462C079C0BB2041F081E0902F9F7112
:101A400001C0880F9A95EAF701C080E00E94AF1CA0
:101A50006FC08091150282FD06C0802F8F71BB2060
:101A600009F462C049C08091D903823038F1BB20AB
:101A7000B9F09091D3029770943039F40E94062502
:101A8000802F8F710E94D41C52C0C81608F04FC01E
:101A9000102F1F71812F0E94E11C63E0812F07C06E
:101AA000C81640F00E94062564E0802F8F710E94C6
:101AB0003B253DC081E00E940D2539C0BB2051F07F
:101AC000102F1F71812F0E94E11C63E0812F0E9463
:101AD0003B252EC081E00E940D25F1E0FC1540F56C
:101AE00082E00E940D2524C0BB2049F0CC2011F0DB
:101AF0008D2D3CCE802F8F710E94E11C19C0CC200F
:101B000089F0893329F48091DD039091DE0304C0CC
:101B10008091DB039091DC030E94892E8D2D0E9421
:101B2000EB1F06C0802F8F710E94D41C01C0A12C16
:101B300088EF880D843020F40E947B2D0E94823330
:101B40008D2D902F0E94F01C811105C01092BC01B8
:101B50001092BB011FC0BB2019F0C110F7CF1AC0F3
:101B6000C110F4CF20E0F70140815181628173817F
:101B7000848195810E9493338091DA0383FFE6CFBD
:101B80008091BB019091BC01029701F78D2D0E94BD
:101B90001221DCCFAA20A9F08091D30280FD11C0D0
:101BA000F70115828695869586950E94E11CC701EE
:101BB0000E9483068091D3028695869586950E9421
:101BC000D41C60E0C7010E94B8338AC006316CE7BC
:101BD000160709F46DCC80919C038272F801E052E3
:101BE000F847E531F10508F060C0E557FF4F0C9468
:101BF000423681608093900361E086954EC040E854
:101C000052E36AE872E32CC04AE852E360E872E308
:101C100027C042E252E36CE272E322C04CE252E39C
:101C200062E272E31DC048E052E365E172E318C06E
:101C300045E152E368E072E313C04EEE51E36BEF0F
:101C400071E30EC04BEF51E36EEE71E309C045E85E
:101C500050E36FE970E304C04FE950E365E870E3D7
:101C60000E94DA2A81CC61E081E017C065E082E061
:101C700019C068E086E016C06EE089E013C064E138
:101C80008FE010C067E185E10DC061E088E105C02B
:101C900062E289E107C061E083E20E94363264CCEF
:101CA0006AE285E20E94C62A5FCC07372CE712075A
:101CB00049F008376CE7160709F072CC82E008C0DB
:101CC00081E003C081E004C082E00E94E11C02C008
:101CD0000E94D41C43E062E081E00E94B21C44CC2C
:101CE0002496EEE00C947E36AEE2B0E0EAE7FEE049
:101CF0000C945E3685B7806885BF85B7806885BFE0
:101D000084B7877F84BF0FB6F894A8958091600050
:101D1000886180936000109260000FBE90E080E8C0
:101D20000FB6F89480936100909361000FBE85E335
:101D300091E29093B9018093B8010E94472F0E94CD
:101D4000861A0E94A51A8091E20084608093E200C6
:101D5000789480913B028823A1F01091E9001F70D4
:101D60009091EC00892F817090FD80E8182B1092E3
:101D7000E9008091E80083FD0E946B171F701093AB
:101D8000E90082E084BD93E095BD9AEF97BD809312
:101D90006E000E94BF29811102C00E94AF2900E39A
:101DA00011E039E3E32E31E0F32ED8018D918D015E
:101DB0008F3F11F00E942222E016F106B1F709E3ED
:101DC00011E025E4E22E21E0F22EF80181918F014D
:101DD0008F3F11F00E942222E016F106B1F788E150
:101DE000EAEFF1E0DF01282F1D922A95E9F7EDEBEC
:101DF000F1E0DF011D928A95E9F70E944E248111DE
:101E000002C00E945A2482E090E00E9435358093FF
:101E1000D70184E090E00E944335909315028093AF
:101E200014020E943922BFEFE6E7F1E0B150E04032
:101E3000F040E1F700C000000E94392280910402C6
:101E400080FF08C06FEF7FEF80E090E00E94773561
:101E50000E943A2C83E090E00E9435350E94ED1CF0
:101E60003E9A469A3F9A479A259A2D9A269A2E98F4
:101E700082E28093800089E1809381008FEF9FEF61
:101E800090938700809386000E949A2A0E949A2A43
:101E90008091D601811173C00E944E24811104C02B
:101EA0000E945A240E94B93088E090E00E943D359B
:101EB0004B015C0184E290E00E943535282F30E030
:101EC00040E050E060E070E080E090E000E20E94DE
:101ED0009536282939294A295B2920939003309384
:101EE00091034093920350939303609394037093F0
:101EF000950380939603909397032E7F89F50E9414
:101F0000B93088E090E00E943D356B017C0184E2AD
:101F100090E00E943535282F30E040E050E060E04E
:101F200070E080E090E00E949536B22FA32FF42F4E
:101F3000E52F5B0197018601BC29A12BF22BE32B36
:101F4000B0939003A0939103F0939203E0939303D3
:101F500060939403B09295038093960390939703B4
:101F60000E944C30109207048091900380FF04C0BF
:101F700060E086950E94363281E08093D60184E04D
:101F800091E09093EB038093EA038E010F5F1F4F64
:101F900080913B02853009F053C080E1E82E92E148
:101FA000F92E80913B02853009F042C080913B02BE
:101FB000843051F180E00E94802A80E00E948233C8
:101FC0001092EE0388E190E0A0E40FB6F894A89593
:101FD000809360000FBEA093600083B7817F846010
:101FE00083BF83B7816083BF7894889583B78E7FE2
:101FF00083BF0FB6F894A8958091600088618093A4
:102000006000109260000FBE80913A02882309F4AC
:10201000C8CF0E943922EAEFF1E081919191892B9A
:1020200009F0AAC582E192E08E179F07B1F7B9CFF8
:102030000E94BE1E0E949A2A0E947B2D0E9482331B
:102040000E943922A8EDCA2EA1E0DA2EBAEFEB2EBB
:10205000B1E0FB2E20EF31E0D701F6014191519123
:102060008D919D91842795272E173F0719F0892B75
:10207000A9F305C0892B19F40E942A2443C0FAEF62
:102080004F2EF1E05F2E312CD2018D909D902D01CD
:10209000F60160807180682479246114710449F12B
:1020A000212CAA24A394B12CC3018A219B21892B22
:1020B000B9F029A63AA60E949F2C9CA78BA7F1E015
:1020C000FDA791E094012A213B21232B09F490E004
:1020D0009EA749A55AA56BA57CA58DA50E94C333D3
:1020E0002394AA0CBB1C29E02212DECFD6018D92CC
:1020F0009C923394B2E0CB0ED11CECE03E12C4CFE4
:102100000E94932C8091D80380FF1EC080911A01F9
:1021100082FF1AC00E949F2C2091E1033091E203BC
:10212000AC01421B530B2091180130911901421749
:10213000530750F020EF31E041E0BC018091E30310
:102140009091E4030E94942E80910704882309F45F
:10215000AAC080910604E0919003E695E81BE09305
:102160000204823059F4F0E0EF57FE4FE491CE2E96
:10217000D12C60E1A62E69E2B62E70C0863059F4EB
:10218000F0E0E258FE4FE491CE2ED12C50E0A52E87
:1021900059E2B52E63C0893061F4E695F0E0E55868
:1021A000FE4FE491CE2ED12C4CE9A42E48E2B42E61
:1021B00055C08F3061F4E695F0E0E858FE4FE491A9
:1021C000CE2ED12C37E3A32E38E2B32E47C0853173
:1021D00059F4F0E0EB58FE4FE491CE2ED12C29EECD
:1021E000A22E27E2B22E3AC08831F9F0833249F4A8
:1021F000E3E7F1E0C590D49096ECA92E98E2B92ED1
:102200002DC08432D1F0853209F58E2F63E00E9413
:102210000036E92FF0E0E059FE4FE491CE2ED12CAC
:1022200082EAA82E86E2B82E19C0A8E2CA2ED12CC6
:10223000BEE6AB2EB7E2BB2E11C0E4EFCE2EDD24FE
:10224000D394F6E3AF2EF7E2BF2E08C060EDC62EA2
:1022500067E0D62E7BE8A72E76E2B72E80910304A6
:10226000882361F0109203040E949F2C9093010434
:102270008093000410920504109204040E949F2C85
:10228000E0910004F09101048E1B9F0B8F3F9F474C
:1022900050F4CE0EDF1ED0920104C092000480E004
:1022A00094E0F501099586E0EAEFF3E0D8010190AA
:1022B0000D928A95E1F79090FB03A090FC03B090FB
:1022C000FD03C090FE03D090FF031092FC03109218
:1022D000FD031092FE031092FF03A11003C0BB2068
:1022E00009F454C08091F8039091F9030E94842C62
:1022F000AC019091F303992339F02091160130E05D
:102300002417350758F042C020911701FAE02F9F9B
:10231000900111242417350718F038C09F3F19F099
:102320009F5F9093F303AA2061F00E94F8321A1481
:1023300014F491E001C09FEF899F802D11248093B8
:10234000FC03BB2061F00E94F8321B1414F09FEFD5
:1023500001C091E0899F802D11248093FD0380911D
:10236000FC03882399F08090FD03882079F00E9477
:102370004733811101C081E08093FC03882D0E94C6
:102380004733811101C081E08093FD03C11003C078
:10239000DD2009F454C08091F6039091F7030E9468
:1023A000842CAC019091F403992339F0209112010F
:1023B00030E02417350758F042C0209113018AE01D
:1023C000289F900111242417350718F038C09F3F2B
:1023D00019F09F5F9093F403CC2061F00E94BF320C
:1023E0001C1414F491E001C09FEF899F802D1124EB
:1023F0008093FE03DD2061F00E94BF321D1414F0B3
:102400009FEF01C091E0899F802D11248093FF03ED
:102410008091FE03882399F08090FF03882079F053
:102420000E944733811101C081E08093FE03882D13
:102430000E944733811101C081E08093FF038091A6
:10244000FB0389111AC08091FC03882311F08A11C3
:1024500014C08091FD03882311F08B110EC0809170
:10246000FF03882311F0D81208C09091FE0399232E
:1024700031F081E09C1104C002C081E001C080E025
:1024800080FD15C08091FC0381110FC08091FD0378
:1024900081110BC08091FE03811107C081E09091F2
:1024A000FF03911103C080E001C081E080FD0E9424
:1024B00095329A82AB82BC82CD82DE8286E0F801C0
:1024C000AAEFB3E001900D928A95E1F70E947B2D6F
:1024D000D82E8091F701D81639F0D092F7010E94DA
:1024E000932C8D2D0E94823380913B02843009F021
:1024F0004FCD83E08093E9008091E80082FF48CDD2
:102500008091E80085FF21C00E94D71B81111BC06C
:1025100050E2C52ED12C580109C08091F100D5019F
:102520008D935D01B1E0CB1AD10869F08091E8008C
:1025300085FDF3CF8091E8008B778093E8000E94BF
:10254000D71B882399F391E001C090E08091E800C7
:102550008B778093E800992309F41ACDC09012027A
:10256000D09013028981C114D10461F08E3F09F02B
:10257000FCC28A81833008F4E4C18550833008F0BE
:10258000F4C2DFC1893009F403C1D0F4843009F406
:102590006CC050F48230A1F108F05AC0813009F0CB
:1025A000E2C21A8289E053C2863009F470C008F48E
:1025B00063C0873009F46EC0883009F4B3C0D3C259
:1025C000803109F459C180F48D3009F4F8C028F441
:1025D0008C3009F0C8C280E153C18E3009F4F3C0D9
:1025E0008F3009F41BC1BFC2823109F44BC108F41A
:1025F00046C1833109F470C18E3F09F4A2C1B3C250
:102600008A81823009F4CEC2833051F0813009F0E2
:10261000AAC20E94932C9B838C837D836E83A5C268
:1026200080911B0190911C01892B09F49EC2F80135
:10263000CE014996D7012C9111963C91B2E0EB0E58
:10264000F11C328323833296E817F90799F78DC27C
:102650008A81823009F087C26B817C818D819E8165
:102660000E9448360E948B2980C24C816B818A81EE
:102670000E94282E9D839DC22D813E8132272327D3
:1026800032274C816B818A810E94012E6EC20E948A
:10269000C02F6BC28A81893061F48B81E5E08E9F07
:1026A000C00111246FEF70E00E941A36862F0E943D
:1026B000802A8A818138B1F050F4803809F055C2FF
:1026C00020E04B81609192038091910328C0823871
:1026D00011F1833809F049C220E0409193036C81E5
:1026E0008B811DC060E08B810E9436329B8180917E
:1026F0009003911108C08E7F80939003109207047D
:102700000E94053032C281608093900360E086951C
:102710000E9436322AC28B818093940326C20E9483
:10272000703123C28A81893021F08A3089F41B827A
:102730001CC280919803869586958695FFEF8F9FA2
:10274000C001112465E070E00E941A366B830DC24F
:10275000813899F030F4803809F007C280919303F2
:1027600076C1823891F0833809F0FFC180919103DE
:102770008B83809192038C83F8C18091900380FFBA
:1027800002C0869564C180E062C1809194035FC1FC
:10279000809198030E947A2A2091900330919103AE
:1027A000409192035091930360919403709195032B
:1027B00080919603909197030E945F30D6C182E08A
:1027C0008A8383E044C1EA80FB80FE24EF24FE2458
:1027D000AC80B12C2DE1A216B10408F0C6C168018D
:1027E000C70183509E4F9601201B310B2A153B05D4
:1027F00008F0BBC143E0E41642E0F40630F40E9466
:102800003535D60114968C9302C0F6011482FFEF81
:10281000EF1AFF0A2FEFC21AD20AE2CF80911B01F2
:1028200090911C01892B09F4A0C1EA80FB80FE2451
:10283000EF24FE24CC80D12C4DE1C416D10408F045
:1028400094C15801C70183509E4F9501201B310B45
:102850002C153D0508F089C1A3E0EA16A2E0FA06AE
:1028600020F4F50164810E945935FFEFEF1AFF0A49
:102870002FEFA21AB20AE6CF0E94F12D76C182E0B4
:102880008A8373C1EA80FB80FE24EF24FE24AC809F
:10289000B12C4DE1A416B10408F067C16801C7016D
:1028A00089969601201B310B2A153B0508F05DC166
:1028B000A0EBEA16A1E0FA0628F40E943535F601ED
:1028C000848303C0D60114961C92BFEFEB1AFB0A57
:1028D000EFEFCE1ADE0AE3CFEA80FB80FE24EF247E
:1028E000FE24CC80D12CFDE1CF16D10408F03DC1EF
:1028F00020EBE21621E0F20608F037C180EB91E010
:102900008E199F098C159D0508F42FC15801C70128
:1029100089969501201B310B2C153D0508F025C12A
:1029200040EBE41641E0F40628F4D50114966C91CE
:102930000E945935BFEFEB1AFB0AEFEFAE1ABE0A41
:10294000E6CFEA818E2F90E08E30910508F00DC120
:10295000FC01E056FF4F0C94423688E0E8E2F1E0DB
:10296000DE01919601900D928A95E1F780E2D801FF
:102970001D928A95E9F786E0898388E0FE01B19689
:10298000DE01159601900D928A95E1F7EEC080EE7A
:10299000898383E08A831B821C82E7C08C8190E05C
:1029A000982F88272B81820F911D092E000CAA0BCE
:1029B000BB0B45E0880F991FAA1FBB1F4A95D1F793
:1029C000AC01BD01405E5F4F6F4F7F4F4817590705
:1029D0006A077B0708F4C9C0803EE3E09E07A105B3
:1029E000B10508F0C2C0413EF3E05F076105710523
:1029F00020F040EE53E060E070E0481B590BBC0152
:102A00006B577E4FC8010E942C35AFC040E250E0AA
:102A10006FEF70E0C8010E94EF3680911B0189833F
:102A2000CA82A3C081E090E09093130280931202C7
:102A300082E390E09093F9018093F8010E949F2C2B
:102A400094C080911B018983CA828091F8018B8395
:102A50008CC0EB80FC8040E250E06FEF70E0C8017A
:102A60000E94EF3620EE38E080E090E0AC014E5F4F
:102A70005F4F4132510508F078C0F90165917491BA
:102A8000E616F70630F4F801E80FF91F718360834A
:102A9000CA01245F3F4F49E02C3D340739F765C038
:102AA0004B815C812CED39E080EE98E0FC01659172
:102AB00074914617570729F00C9628173907B1F774
:102AC00052C0009709F44FC0FC013696259134910D
:102AD0002115310509F447C04FE150E0BE016E5F9A
:102AE0007F4FF901099540C08B819C8120EEE22E39
:102AF00028E0F22EF701259134918217930749F0CF
:102B0000FCE0EF0EF11C2CEDE21629E0F20691F745
:102B10002AC0E114F10439F1F70138962591349176
:102B20002115310501F14CE150E0BE016B5F7F4F93
:102B3000C701F90109950097B9F4F7013A96859113
:102B40009491009711F0FC01099580E00DC00E945E
:102B50006E2F0BC08B81811108C080E2D8011D92BD
:102B60008A95E9F702C08FEF898340E250E0B8010F
:102B700082E00E94FC2B0CCAE9BCF9BC09B400FE3F
:102B8000FDCF8091D8008F7D8093D8008091E000A8
:102B900082608093E0008091E00081FDFCCF0E9484
:102BA000BE1EFFC988E290E00E9435351B821C8260
:102BB0001D828E83DACF80913D0287FF11C0809104
:102BC000E80082FD05C080913B028111F8CF11C061
:102BD0008091E8008B770BC080913B02882349F0FD
:102BE0008091E80080FFF8CF8091E8008E77809395
:102BF000E8000895982F973068F59093E9009817AA
:102C000039F07091EC002091ED005091F00003C07C
:102C1000242F762F50E021FD02C09F5FECCF309132
:102C2000EB003E7F3093EB003091ED003D7F309321
:102C3000ED003091EB0031603093EB007093EC00CD
:102C40002093ED005093F0002091EE0027FDE5CF9A
:102C500080E008958F708093E90081E008952091CD
:102C60004302309144022617370748F06115710579
:102C700039F42091E8002E772093E80001C0B901D3
:102C8000FC0120E06115710579F180913B028823F8
:102C9000F1F18530F1F18091E80083FD3CC0809135
:102CA000E80082FD2EC08091E80080FFEBCF2091EC
:102CB000F3008091F20090E0922B6115710551F0C4
:102CC0008830910538F421912093F1006150710909
:102CD0000196F3CF21E0089709F020E08091E80009
:102CE0008E778093E800CECF2111CFCF0AC080919C
:102CF0003B02882361F0853061F08091E80083FD1C
:102D00000AC08091E80082FFF2CF80E0089582E05F
:102D1000089583E0089581E0089543E050E0BC0108
:102D200084E00E94FC2B089546E050E0BC0184E062
:102D30000E94FC2B0895CF93DF93EC0180910C014E
:102D4000811105C048E050E0BE0181E00BC08091D8
:102D5000140287FF03C040E284E002C048E081E043
:102D600050E0BE010E94FC2B80E2FE01A9E1B2E02E
:102D700001900D928A95E1F7DF91CF910895A0E03F
:102D8000B0E0E5ECF6E10C946636EC018AE0A82EA2
:102D90002881222309F49AC0213009F041C0898199
:102DA000813039F48E010E5F1F4F8A810E941221FB
:102DB00008C0823041F48E010E5F1F4F8A810E944D
:102DC0004F20E80181C0833039F48E010E5F1F4F20
:102DD0008A810E94EB1FF5CF843011F0219674C0D8
:102DE0002A81229680E090E030E0205331092A3099
:102DF000310558F4A89EA001A99E500D1124C901C7
:102E0000840F951F21962881EFCF009709F45CC0AD
:102E1000EFE9FFE03197F1F700C000000197F5CF2F
:102E2000E22FF0E0E05AF84FB490822F8695869515
:102E3000869590E0FC01E05BF84FE4902770F12C60
:102E4000022E02C0F594E7940A94E2F7F1E0EF2233
:102E5000FF24FC01E05CF84FC490D12C022E02C08C
:102E6000D594C7940A94E2F731E0C322DD24FC0133
:102E7000E05DF84F049110E002C0159507952A9582
:102E8000E2F701701127E114F10419F081EE0E94BC
:102E90004F20C114D10419F086EE0E944F208B2DD3
:102EA0000E941221C114D10419F086EE0E94EB1F7A
:102EB000E114F10419F081EE0E94EB1F01151105D8
:102EC00019F08CE20E941221219662CFCDB7DEB7B5
:102ED000EAE00C948236AAE2B0E0E1E7F7E10C9474
:102EE0006D36EDE3F2E085E492E02091F10021936C
:102EF0008E179F07D1F780913E02833009F463C09B
:102F000030F4813071F0823009F49DC0B4C08A3051
:102F100009F489C08B3009F46EC0893009F0ABC068
:102F200020C080913D02813A09F0A5C08091E8005F
:102F3000877F8093E8008091410290914202892B23
:102F400021F460E289E192E003C060E080E090E07B
:102F500070E00E942F168091E8008B778093E80044
:102F60008AC080913D02813209F085C08091410282
:102F700090914202009719F0029709F07CC080916D
:102F8000E800877F8093E8008091E80082FD05C01B
:102F900080913B028111F8CF6EC02091F3008091A7
:102FA000F20090E0922B029731F48091F100813091
:102FB00011F0863021F48091F10080931802809105
:102FC000E8008B7754C080913D02813A09F053C0EC
:102FD0008091410290914202892B09F04CC080916E
:102FE000E800877F8093E8008091E80080FFFCCFB5
:102FF00080910C0137C080913D028132E1F58091D2
:10300000410290914202892BB1F58091E800877FBF
:103010008093E8000E94DB1580913F0280930C01B1
:103020000E94BE1E28C080913D02813221F5809110
:10303000E800877F8093E8000E94DB1580914002C2
:103040008093170218C080913D02813AA1F48091CB
:10305000E800877F8093E8008091E80080FFFCCF44
:10306000809117028093F1008091E8008E77809321
:10307000E8000E94DB158091E80083FFEBC180919E
:103080003D0290913E02492F50E04A30510508F030
:10309000E1C1FA01E255FF4F0C944236803821F02D
:1030A000823809F0D7C108C08091390290913A0264
:1030B000992389F082600FC0809141028F70873020
:1030C00008F0C8C18093E9008091EB0085FB882758
:1030D00080F91092E9009091E800977F9093E800C2
:1030E0008093F1001092F1007CC1282F2D7F09F010
:1030F000B1C1882319F0823061F0ACC180913F02E8
:10310000813009F0A7C1933009F080E080933A0242
:103110002EC080913F0281112AC0809141028F70A0
:103120002FEF280F263008F095C18093E9002091F9
:10313000EB0020FF1CC0933021F48091EB008062F3
:1031400014C09091EB0090619093EB0021E030E08F
:10315000A90102C0440F551F8A95E2F74093EA0087
:103160001092EA008091EB0088608093EB0010924F
:10317000E9008091E800877F8093E8000E94DB15DA
:1031800069C1811167C110913F021F778091E300EF
:103190008078812B8093E3008091E800877F809383
:1031A000E8000E94DB158091E80080FFFCCF809151
:1031B000E30080688093E300111102C082E001C047
:1031C00083E080933B0246C18058823008F042C1C0
:1031D00020913F02309140022C3D53E0350779F5B4
:1031E00083E08A838AE289834FB7F894DE011396DD
:1031F00020E03EE051E2E32FF0E050935700E491ED
:1032000020FF03C0E295EF703F5FEF708E2F90E0DC
:10321000EA3010F0C79601C0C0968D939D932F5F42
:10322000243149F74FBF8091E800877F8093E80001
:103230006AE270E0CE0101960E942F16C0C0809114
:10324000410290914202432F552743305105B1F07E
:1032500068F44130510509F40CC14230510509F0C0
:10326000F9C08BE590E0E1E8F6E057C04132510546
:1032700089F14232510509F43CC0ECC0C9019927DB
:1032800081309105B9F070F082309105D9F0039743
:1032900009F0E0C0EEEEF6E0E4918E2F90E0EEEE65
:1032A000F6E038C0ECE2F7E0E4918E2F90E0ECE23B
:1032B000F7E030C0E0E2F7E0E4918E2F90E0E0E24A
:1032C000F7E028C0ECE0F7E0E4918E2F90E0ECE02E
:1032D000F7E020C08330910508F0BCC0880F991F2B
:1032E000FC01E25BFE4F0190F081E02D89E090E06F
:1032F00014C08330910508F0ADC0FC01EE0FFF1F34
:10330000E85BFE4F0190F081E02DDC01AB5BBE4F2E
:103310008C9190E0009709F49DC02091E800277FF0
:103320002093E80020914302309144022817390786
:1033300008F4C90140E0009789F120913B02222363
:1033400009F43DC02530D9F12091E80023FD37C0B4
:103350002091E80022FD2FC02091E80020FFEBCF54
:103360004091F3002091F20030E0342B009759F0A7
:103370002830310540F444914093F1003196019793
:103380002F5F3F4FF3CF41E02830310509F040E097
:103390002091E8002E772093E800CDCF4111CDCFCA
:1033A0000AC080913B02882351F0853041F0809122
:1033B000E80083FD04C08091E80082FFF2CF809195
:1033C000E8008B778093E80045C0803809F042C060
:1033D0008091E800877F8093E80080913C02809391
:1033E000F1008091E8008E77C7CE811133C08091C3
:1033F0003F02909140029927029764F58091E8007E
:10340000877F8093E80010913F0210933C020E9456
:10341000DB15111106C08091E30087FD02C081E039
:1034200001C084E080933B0242E061EC81E00E94B5
:10343000FA1542E261EC84E00E94FA1542E261EC86
:1034400082E00E94FA1542E260EC83E00E94FA15E5
:1034500080913B028091E80083FF10C08091E800DA
:10346000877F8093E8008091EB0080628093EB007F
:1034700005C082E190E0ECEDF6E04FCFAA96E3E0E4
:103480000C9489361F920F920FB60F9211242F932E
:103490003F934F935F936F937F938F939F93AF93DC
:1034A000BF93CF93DF93EF93FF93C091E900CF7069
:1034B0008091EC00D82FD17080FDD0E81092E90007
:1034C0008091F000877F8093F00078940E946B17C2
:1034D0001092E9008091F00088608093F000CD2B7D
:1034E000CF70C093E900FF91EF91DF91CF91BF9131
:1034F000AF919F918F917F916F915F914F913F918C
:103500002F910F900FBE0F901F901895E8EDF0E0EF
:1035100080818E7F80831092E2001092DA001092F8
:10352000E100A0EEB0E08C9181608C9380818F7778
:10353000808319BCA7EDB0E08C918E7F8C93808145
:103540008F7E8083109216020895A0E0B0E0EBEA2F
:10355000FAE10C946836C8EDD0E088818F7E8883CC
:10356000E7EDF0E080818160808384E082BF81E0CC
:103570008093160288818E7F888302EE10E0F80126
:1035800010821092DA0081EEC82ED12CF601108242
:1035900088818F77888388818068888388818F7D00
:1035A000888319BC10923B0210923C0210923A029E
:1035B0001092390290EEE92EF12CF70180818B7F79
:1035C000808388818160888342E060E080E00E949F
:1035D000FA15F60180818E7F8083F80180818160F9
:1035E0008083808188608083F70180818E7F8083E3
:1035F000888180618883CDB7DEB7E8E00C9484369B
:103600001F920F920FB60F9211242F933F934F9357
:103610005F936F937F938F939F93AF93BF93EF933A
:10362000FF938091E10082FF09C08091E20082FF58
:1036300005C08091E1008B7F8093E1008091DA00EA
:1036400080FF2AC08091D80080FF26C08091DA00D8
:103650008E7F8093DA008091D90080FF18C080E1CE
:1036600089BD82E189BD09B400FEFDCF81E0809370
:103670003B028091160281110FC00E94861A0E949F
:10368000A51A8091E20084608093E20005C019BC15
:1036900010923B02109216028091E10080FF17C049
:1036A0008091E20080FF13C08091E2008E7F8093C2
:1036B000E2008091E20080618093E2008091D80076
:1036C00080628093D80019BC85E080933B02809192
:1036D000E10084FF30C08091E20084FF2CC080E1D3
:1036E00089BD82E189BD09B400FEFDCF8091D8007B
:1036F0008F7D8093D8008091E1008F7E8093E100E0
:103700008091E2008F7E8093E2008091E2008160F0
:103710008093E20080913C02882311F084E007C08E
:103720008091E30087FD02C081E001C083E08093C7
:103730003B0280913B028091E10083FF27C0809192
:10374000E20083FF23C08091E100877F8093E10046
:1037500082E080933B0210923C028091E1008E7FD8
:103760008093E1008091E2008E7F8093E20080915F
:10377000E20080618093E20042E060E080E00E942D
:10378000FA158091F00088608093F000FF91EF912E
:10379000BF91AF919F918F917F916F915F914F9169
:1037A0003F912F910F900FBE0F901F901895209171
:1037B000E4003091E50095E64091EC00842F8170A3
:1037C00040FF23C08091E80080FD1DC080913B0236
:1037D000882399F0853099F08091EB0085FD11C028
:1037E0004091E4005091E5002417350729F39150EA
:1037F00011F09A01E1CF84E0089582E0089583E01A
:10380000089581E0089580E008954091E80042FF26
:10381000DDCF0895CF92DF92FF920F931F93CF9346
:10382000DF936C010091D5018091F702082BC1E074
:10383000D0E010E0C8010C2E02C0959587950A943F
:10384000E2F780FD04C02197A8F7F12C09C0FC2EF7
:10385000B6018C2F0E94F0220E940D23019799F34C
:103860008F2DDF91CF911F910F91FF90DF90CF901F
:103870000895CF93DF93EC010E940A1CBE010E94C1
:10388000F0220E940D23DF91CF910895292F9C30C3
:1038900078F5893068F590E039E0239F800D911D1F
:1038A0001124682F677023E0969587952A95E1F794
:1038B000FC01EE0FFF1FE80FF91FEB5BFD4F40E02F
:1038C00050E080E0219130E0062E02C03695279529
:1038D0000A94E2F721703327042E01C0220F0A94C4
:1038E000EAF7822B4F5F5F4F4330510559F7089538
:1038F00080E00895292F9C3088F5893078F590E094
:1039000039E0239F800D911D1124282F277051E04D
:1039100001C0550F2A95EAF723E0969587952A95D9
:10392000E1F7FC01EE0FFF1FE80FF91FEB5BFD4F06
:1039300020E030E070E04081CB01022E02C096957D
:1039400087950A94E2F781708195842785238427DF
:1039500081932F5F3F4F2330310569F7089580939E
:10396000D50108959091D50121E030E0F90101C021
:10397000EE0F8A95EAF7D90102C0AA0FBB1F6A951C
:10398000E2F7BD016E2B01C0220F4A95EAF7892F9D
:103990008623681303C0892F822B03C02095822FB2
:1039A00089230E94AF1C089521E030E001C0220F5E
:1039B0008A95EAF720958091D50182230E94AF1C59
:1039C000089521E030E001C0220F8A95EAF7809146
:1039D000D501822B0E94AF1C08958093F7020895B1
:1039E00092959F70963079F010F4925001C09A50E1
:1039F000923068F4803F69F018F4883E40F409C0C2
:103A0000843F29F406C0883E20F0813F11F080E019
:103A1000089581E00895FC012481222339F08081FA
:103A200091810E94391C0E94F01C089580E0089545
:103A3000A4E1B0E0EEE1FDE10C9463368C0186E098
:103A4000F801DE011F9601900D928A95E1F7D801E9
:103A500014969C9014971596EC908FE8A82E82E00F
:103A6000B82E80919302811122C0992009F452C08E
:103A7000EE2009F44CC0C8010E940B1DF82E8823CB
:103A800009F445C087E0F801AFE8B2E001900D927B
:103A90008A95E1F780919302813031F480918F0211
:103AA000909190020E94391C0E94042662C1F80184
:103AB00070808180C280D38060E08FE892E00E94B5
:103AC000B833F09094028091910290919202FF207D
:103AD00009F4F2C09601281B390B283C310508F087
:103AE000A9C09920B9F080919502382F307F20919C
:103AF0009002D80111969C911197332371F02917E8
:103B000009F468C0C8010E940B1D81116CC0C80176
:103B10000E948306FF24F3942CC1291314C0209122
:103B20008F029C9129130FC0E1100DC08F7080612E
:103B3000809395028FE892E00E948306809195021F
:103B4000F801868315C1E1103BC040E0682D872D48
:103B50000E94DA25E82E882329F08091DA0380FD7F
:103B6000FCC006C17F86888A8F8598890E94391C8F
:103B7000292F22952F70243020F49F70223028F0B6
:103B800009C02A50223088F015C0992351F08111C4
:103B900008C014C0992329F0D80116969C91907FF3
:103BA00069F0805E883030F409C0803F38F0815F72
:103BB000833020F0C8010E948306EF2CFE2CD9C070
:103BC000809195028160809395028091DA0381FD56
:103BD000CFC0C3C020918F02F8019081291392CFEA
:103BE000E11090CF99C0EE2009F491CF2091950279
:103BF000822F82958F7090E002978CF080918F02D7
:103C00009091900299878887DB86CA86809193027B
:103C10008C871D862E87CE0108960E94830687E03A
:103C2000F801AFE8B2E001900D928A95E1F70E94A9
:103C3000042670CF80919502982F907F39F48FE8F9
:103C400092E00E94830687E0D5018FC0992009F495
:103C500061CF20919002F801918129130CC020912D
:103C60008F029081291307C0E11005C08683C80127
:103C70000E9483066CC0C8010E940B1D882309F4B2
:103C800046CFEE2009F443CF20919502822F8295F2
:103C90008F7090E002971CF280918F0290919002B9
:103CA0009A838983DC82CB82809193028D831E82EA
:103CB0002F83CE010196B1CFC81AD90AB8ECCB1622
:103CC000D10408F044C0992009F424CFFE2CEE2042
:103CD00009F41DCF90919002F8018181981329C0B9
:103CE00090918F028081981324C09091950290FD4D
:103CF00017C0892F82958F70282F30E0211531054C
:103D000079F096832F30310541F08F5F982F92958F
:103D1000907F86818F70892B8683C8010E948306DD
:103D200087E0F801AFE8B2E001900D928A95E1F7E3
:103D300020C0C8010E940B1D811171CF8091950296
:103D4000816080939502C8010E94830612C087E0BB
:103D5000D5011D928A95E9F70CC08FE892E00E9488
:103D60008306EFE8F2E087E0DF011D928A95E9F72C
:103D7000F12C8F2D6496EDE00C947F3610929C030D
:103D800080910C01882331F08091140287FF02C0DA
:103D90008EE101C086E0E1E7F2E0DF011D928A9545
:103DA000E9F780E090E00E94562D80E090E00E94CC
:103DB000312D10929B030E946C25EAEFF3E086E020
:103DC000DF011D928A95E9F71092F3031092F40334
:103DD0001092F5030E9495320895882341F0809552
:103DE00090919B03892380939B030E946C250895E7
:103DF000882339F090919B03892B80939B030E9429
:103E00006C250895882321F00E94FF240E946C25D0
:103E10000895882339F090919C03892B80939C030B
:103E20000E946C250895662309F45CC08D3C21F442
:103E30000E94F832819504C08E3C29F40E94F83229
:103E40008093FD03C5C08F3C21F40E94F832819518
:103E500004C0803D29F40E94F8328093FC03B8C06E
:103E6000893D19F40E94BF3205C08A3D31F40E9499
:103E7000BF3281958093FE03ABC08B3D21F40E943D
:103E8000BF32819504C08C3D29F40E94BF328093DB
:103E9000FF039EC09FE2980F983078F421E030E055
:103EA000A90102C0440F551F9A95E2F7CA019091EB
:103EB000FB03892B8093FB038BC08D3D21F4809104
:103EC000F50381600CC08E3D21F48091F503826082
:103ED00006C08F3D09F07CC08091F503846080931B
:103EE000F50376C08D3C39F49091FD0397FF35C002
:103EF0001092FD0359C08E3C29F49091FD031916D0
:103F0000BCF32BC09091FC038F3C29F497FF25C094
:103F10001092FC0349C0803D19F41916CCF31DC062
:103F20009091FE03893D29F41916BCF41092FE030A
:103F30003BC08A3D19F497FF10C0F8CF8B3D39F490
:103F40009091FF0397FF09C01092FF032DC08C3D95
:103F500021F49091FF031916BCF39FE2980F98305B
:103F600080F421E030E0A90102C0440F551F9A956A
:103F7000E2F7CA0180959091FB0389238093FB03AC
:103F800013C08D3D21F48091F5038E7F0BC08E3DD3
:103F900021F48091F5038D7F05C08F3D29F4809138
:103FA000F5038B7F8093F5038091FC03811106C09C
:103FB0008091FD03811102C01092F3038091FE03F2
:103FC000811106C08091FF03811102C01092F40399
:103FD0000E9495320895882309F460C0823869F4FC
:103FE0000E947B2D81FF5AC069E38FE692E00E9418
:103FF000FC2C0E946C2569E30EC0833899F40E9462
:104000007B2D80FF4BC063E58FE692E00E94FC2C85
:104010000E946C2563E58FE692E00E94D42C0E94FA
:104020006C250895843869F40E947B2D82FF36C088
:1040300067E48FE692E00E94FC2C0E946C2567E406
:10404000EACF9CEF980F913A10F4682FE4CF90E2FA
:10405000980F983050F4877091E001C0990F8A95BD
:10406000EAF7892F0E94FF24DACF9BE5980F93305F
:1040700028F480E090E00E94562D089598E5980F6E
:104080009B3128F480E090E00E94312D089593E365
:10409000980F933118F460E00E94131F0895CF9396
:1040A000882309F4BDC0C82F8238B1F40E947B2D4B
:1040B00081FDB6C069E38FE692E00E94FC2C0E946D
:1040C0006C252FEF87EE93E0215080409040E1F780
:1040D00000C0000069E317C08338E1F40E947B2D23
:1040E00080FD9EC063E58FE692E00E94FC2C0E945A
:1040F0006C252FEF81EE94E0215080409040E1F755
:1041000000C0000063E58FE692E00E94D42C0E947C
:104110006C2586C08438B1F40E947B2D82FD80C05E
:1041200067E48FE692E00E94FC2C0E946C252FEF42
:1041300081EE94E0215080409040E1F700C0000003
:1041400067E4E1CF8CEF8C0F813AB8F580910C01D8
:104150008823E1F08091140287FF18C0EC2FE695C8
:10416000E695E695F0E0E159FD4F8281282F30E099
:104170004C2F477081E090E002C0880F991F4A954C
:10418000E2F782239323892B59F411C0E1E7F2E08F
:104190008191C81729F022E0E737F207C9F707C075
:1041A0006C2F8FE692E00E94D42C0E946C256C2F1D
:1041B0008FE692E00E94FC2CAACF80E28C0F883020
:1041C00068F4C77081E090E001C0880FCA95EAF7F3
:1041D00090919C03892B80939C0399CFEBE5EC0F86
:1041E000E33040F4F0E0EC5AFE4F808190E00E9412
:1041F000562D16C0E8E5EC0FEB3150F4F0E0EE0F71
:10420000FF1FE95AFE4F808191810E94312D08C025
:1042100083E38C0F833120F461E08C2F0E94131F05
:10422000CF9108951F93CF93DF93182F893329F4EB
:10423000C091DD03D091DE0304C0C091DB03D091B7
:10424000DC03812F0E944F20209741F08FE99FE0EF
:104250000197F1F700C000002197F6CF812F0E944F
:10426000EB1FDF91CF911F91089580E00895909109
:10427000140292FF10C041E0282F2471243009F06D
:1042800040E031E0282F2871283009F030E0431752
:1042900011F02CE0822793FF10C041E0282F2471F9
:1042A000243109F040E031E0282F2871283109F04D
:1042B00030E0431711F02CE082273091150230FFD7
:1042C00010C051E0282F2171213009F050E041E069
:1042D000282F2871283009F040E0541711F029E008
:1042E000822731FF10C041E0282F2171213109F0D0
:1042F00040E031E0282F2871283109F030E04317E1
:1043000011F029E0822794FD877E08958238910577
:1043100069F1B0F48133910509F475C048F489322C
:10432000910509F467C08A32910509F471C00895B6
:104330008533910509F459C089339105B9F0089581
:10434000833E910589F138F4803E9105D1F0823E9B
:10435000910529F10895863E9105C9F1873E9105A1
:10436000D9F1843E910509F06CC027C02091140258
:1043700020FD57C021FD55C02091150223FD5BC0D3
:1043800008958091140280FD48C08091150280FF3D
:1043900048C08091140284FD46C083EE51C08091D4
:1043A000140282FF3CC0F5CF8091140282FD37C019
:1043B0008091150280FD35C0ECCF8091150281FF00
:1043C00036C08091140284FD2EC087EE39C08091E2
:1043D000140283FF2AC0F5CF8091140283FD25C00B
:1043E0008091150281FD23C0ECCF8091140285FDE0
:1043F00022C01FC08091140285FD1BC08091150250
:1044000083FF19C00AC08091140286FD16C017C030
:104410008091140286FD13C010C089E311C082EEA2
:104420000FC080EE0DC080E00BC086EE09C084EEA8
:1044300007C085E305C089E203C08AE201C081E3C9
:1044400090E00895F894E82FE295EF70F0E031A144
:10445000282F2F7081E090E001C0880F2A95EAF79D
:10446000982F9095932391A392A1892B82A378945E
:104470000895A8E1B0E0EFE3F2E20C946436AE01F7
:104480004F5F5F4F7A0188E1DA011D928A95E9F763
:1044900000E311E0CC24C394D12CAA24A394B12C22
:1044A0004E01B9E18B0E911CF80180818F3F09F418
:1044B0004AC0F894E82FE295EF70F0E021A18F70E8
:1044C000A50102C0440F551F8A95E2F7CA01922F39
:1044D000982B91A392A18095892382A3789400C000
:1044E00069E371E0F701A60140955095DB012D913C
:1044F000BD012F3FA9F0822F82958F7090E0DC01E3
:1045000090968C9190E02F7002C0959587952A9592
:10451000E2F780FD05C0808191818C299D2904C02E
:1045200080819181842395239183808332968E1696
:104530009F06E1F6F80180818F3F11F00E94222250
:10454000F0EAFA95F1F7CC0CDD1C0F5F1F4F41E04C
:104550000933140709F0A8CF48E150E0B7018DEB0B
:1045600091E00E94D936892B89F088E1F701ADEB03
:10457000B1E001900D928A95E1F781E08093FC0211
:104580000E949F2C9093FB028093FA028091FC0280
:10459000811102C080E020C08091FA029091FB025C
:1045A0000E94842C0597B0F348E150E06DEB71E078
:1045B0008AEF91E00E94D936892B59F088E1EDEB22
:1045C000F1E0AAEFB1E001900D928A95E1F781E068
:1045D00001C080E01092FC026896ECE00C948036FA
:1045E0002091120230911302232BA1F4703F39F471
:1045F000603F81F48091990390919A0308957C30F3
:1046000048F4693038F4823028F4462F672F0E942E
:10461000282E089580E090E008951F93CF93DF93B4
:104620000E948621EC01C11580E5D807E8F5C11587
:1046300090E4D90708F0A8C0C03ED10530F5CD3CC4
:10464000D10508F094C0C83AD10578F4C53AD1052F
:1046500008F083C0C130D10509F47CC008F4F2C071
:10466000C430D10508F0F1C0EDC0C33CD10508F05D
:10467000E9C0C85AD0E0CC0FDD1FC95ADE4F0990FF
:10468000D881C02DCE019464E1C0C11580E2D80765
:1046900008F0CBC0C11591E0D90708F06BC0C83E47
:1046A000D10508F4D2C0CEC0C03682E5D80728F5BF
:1046B000C03492E5D90708F079C0C03282E5D80746
:1046C00008F06CC0C11592E5D90708F481C04C2FE1
:1046D0004695469580E2489FA0011124C37021E0D1
:1046E00030E0C90102C0880F991FCA95E2F7EA01BC
:1046F000C82BD92BCE019D68A9C0C03A82E5D80746
:10470000B8F48C2F8F71C03892E5D90708F07BC0C0
:104710008695869590E2899F90011124C37081E06F
:1047200090E002C0880F991FCA95E2F79A6868C0A6
:10473000C03C82E5D80708F46DC0C03E92E5D907B9
:1047400008F080C0CF71DD27DC2FCC27CE01806F31
:10475000906A7CC081E090E079C0C55AD0E0CC5A24
:10476000DE4F8881C82FD0E0CE0190646FC0CE01AB
:1047700090656CC08D2F0E943721182FCE0199278C
:104780000E9486211F715CC0CE0199270E9486215C
:10479000CC27DF70D06A8C2B9D2B58C0CF71D0E016
:1047A000DC2FCC27CE01816F906A50C08C2F8F7187
:1047B0008695869590E2899F90011124C37081E0CF
:1047C00090E002C0880F991FCA95E2F79C6818C054
:1047D0008C2F8F710E94372195E0D695C7959A95B9
:1047E000E1F7CF70D0E0DC2FCC27282F30E084FF1A
:1047F00005C084E0220F331F8A95E1F7D069CE010E
:10480000822B932B23C090E0D82FCC27CE01846F2E
:10481000906A1CC08C2F8F710E9437218F7190E09D
:10482000D82FCC27CE01906211C08D2F8F710E949E
:104830003721182FCE0199270E9486211F7190627F
:10484000912B04C080E090E001C0CE01DF91CF91B8
:104850001F910895A6E0B0E0E0E3F4E20C946C361A
:104860000E949F2C8C018091F8029091F902081708
:10487000190781F019821A820E949F2C682F4981A2
:104880005A81792F80E090E00E94C3331093F9029F
:104890000093F8022696E4E00C94883680E090E0DD
:1048A0000E944335863E9E4F19F40E94BF29089509
:1048B00080E00895A8E0B0E0E0E6F4E20C946E3603
:1048C00066EE7EEF80E090E00E94773560E082E067
:1048D00090E00E94593560E083E090E00E945935F5
:1048E0001092F70260E074E184E090E00E94773576
:1048F00060E086E090E00E9459356FEF87E090E03D
:104900000E94593540E050E0BA0188E090E00E94F2
:104910006B3560E084E290E00E94593560E087E109
:1049200090E00E94593560E08CE090E00E9459359B
:1049300060E08DE090E00E94593519821A821B8256
:104940001C821D821E821F82188648E050E068E1AA
:1049500070E0CE0101960E94493540E050E0BA0176
:1049600080E290E00E946B3580E00E9490290E94D6
:10497000AF2940E050E0BA018FE090E00E946B3533
:1049800040E050E0BA0183E190E00E946B35289648
:10499000E2E00C948A368091F602882331F010927E
:1049A000F6021092F5021092F4020895CF939091BE
:1049B000150292FF0DC09091F602981749F0C82F8A
:1049C0000E949F2C9093F5028093F402C093F6020C
:1049D000CF9108959091F602292F282379F08095A0
:1049E00089238093F602882319F00E949F2C02C02D
:1049F00080E090E09093F5028093F4020895809512
:104A000090919C03892380939C0308951092D30274
:104A10001092D2021092D10208959091D302809503
:104A200089238093D302282F277069F4981759F0AF
:104A30009091150292FF07C08695869586950E94F3
:104A4000D41C0E94062508959091150292FB2227FE
:104A500020F9281779F080FB92F990931502609164
:104A600014027091150284E090E00E94773582E094
:104A70000E940D2508959091150292FF10C098E0B4
:104A8000899F90011124262B2093D3020E94E11CC0
:104A90000E949F2C9093D2028093D10208950E948D
:104AA000E11C08958091BF039091C003892B89F088
:104AB0000E949F2C2091F4023091F502AC01421B20
:104AC000530B81E02091BF033091C003421753077D
:104AD00008F480E08170089590919C0380919B037D
:104AE000892B80936F028091F602882351F1809187
:104AF000BF039091C003892B29F00E945225811198
:104B00000E94CB2490916F028091F602892B8093B2
:104B10006F0280910C01882331F08091140287FF8D
:104B200002C08EE101C086E0E1E7F2E090E0815052
:104B300028F021912223D9F39F5FF9CF91110E9490
:104B4000CB2440E250E064ED72E08FE692E00E94F8
:104B5000D936892B21F180E2EFE6F2E0A4EDB2E054
:104B600001900D928A95E1F7E091EA03F091EB0351
:104B70003097A9F080910C01882359F0809114029C
:104B800087FF07C080916F028093700286E0809358
:104B90006F020280F381E02D8FE692E0099508957F
:104BA0009091D002292F282321F08095982390936B
:104BB000D00208952091CF029091960257E02917D4
:104BC000A9F030E0529FF001539FF00D1124E956F7
:104BD000FD4F7181761306C07081781303C0758113
:104BE000741306C02F5F3F4F2770E9CF80E0089510
:104BF00081E008958091CF0290919602891719F073
:104C00008F5F8770FBCF0895CF93DF9380919502DC
:104C100082958F7009F04EC080919402882309F428
:104C200049C08091CF0240919602509190026091CC
:104C30008F02C0919102D091920277E08417D1F156
:104C400090E0789FF001799FF00D1124DF01A956C3
:104C5000BD4F14962C911497222349F111962C9153
:104C60001197251324C02C91261321C015962C9141
:104C7000159721111CC012962D913C9113972C1B56
:104C80003D0B283C310598F4809195028F7080612E
:104C900080939502E356FD4F80818F708061808301
:104CA0008FE892E00E9483060E94FA2503C00196D5
:104CB0008770C4CFDF91CF910895EDEBF3E084814D
:104CC00095812AE030E0B9010E941A3660931701FD
:104CD0008681809316018285809315018485809357
:104CE000140186859785B9010E941A3660931301D5
:104CF0008089809312018289809311018489809335
:104D0000100108958091BD039091BE039093190105
:104D100080931801089508959C01CA01F901329603
:104D2000459154918417950750F0CB01F9013496C1
:104D3000659174910E94E63680E090E008958FEFCF
:104D40009FEF0895A0E0B0E0E8EAF6E20C94633645
:104D5000FC018280748081E08483E0EEF7E094902F
:104D6000EFE5F8E0E491009193030695015810E017
:104D7000000F111F012F1127C6E3D3E020E0C22E40
:104D800023E0D22EAA24AA94B12CE919EE2EF12CFC
:104D900022E0281530F0809191038883809192035E
:104DA0008983711003C01B821A824AC08B818823B9
:104DB000F9F081508B832FEF829FC00111246C8109
:104DC00070E00E941A36FB01FF27E052F84F8491F1
:104DD000E82FE9192FEFE29FC0011124B7010E94CB
:104DE0001A3680919303689FB00111247A8328C0FA
:104DF0000E941C35B5010E942E368017910704F5DC
:104E000082E0881588F40E941C35B5010E942E3678
:104E100088830E941C35209192032695622F70E0B2
:104E20000E942E36280F29831A82809193038431A1
:104E300020F0893C18F088EC01C084E18C838B83DE
:104E400096014A81698188810E94CC30259623E0B1
:104E5000C20ED11C83E0C039D80709F099CF0E9457
:104E60000530CDB7DEB7EDE00C947F36EF92FF92C0
:104E70000F931F93CF93DF938C01C0E0D3E0E12C1D
:104E8000F12CF8018481F9E0EF16F1041CF4882379
:104E900039F002C0811104C09E014091930302C009
:104EA0009E0140E060919203809191030E94CC307A
:104EB0008FEFE81AF80A239692E1E916F10409F750
:104EC0000E940530F801848190E001968170992755
:104ED0008483CDB7DEB7E6E00C948636A0E0B0E080
:104EE000E4E7F7E20C946436EC014C81042F10E007
:104EF0009801D8010E94E1359B01AC010E94AC35BC
:104F00006B017C01E0E2F0E0E01BF10BA5E5B0E015
:104F10009B01AC010E94AC354B015C019F01DF019C
:104F20000E944F369B01AC010E94B7359B01AC013A
:104F30002C0D3D1D4E1D5F1DC501B4010E94BF35E6
:104F4000822FF22E99E2921728F093E0299F900188
:104F500011240DC025E530E0281B3109C901880F57
:104F6000991F280F391F37FF02C02F5F3F4F35951C
:104F70002795122F109590E0C92E93E0D92E00E0CE
:104F800085E5E82EEF1801FD02C08E2D01C08F2DA2
:104F90009601412F609192030E94CC300F5F83E015
:104FA000C80ED11C023179F70E9405308C81811125
:104FB00002C091E003C0803219F49FEF90930F017B
:104FC00090910F01890F8C83CDB7DEB7ECE00C9484
:104FD00080360F931F93CF93DF93C0E0D3E0FE01A1
:104FE000118210821282339683E0E633F807C1F70C
:104FF00000E010E08091FE02082E000C990B0817CB
:10500000190794F080910E01082E000C990B80175F
:10501000910754F09E014091930360919203809117
:1050200091030E94CC3003C0198218821A820F5F4C
:105030001F4F239602311105E9F60E940530809139
:105040000D019091FE02980F9093FE0220910E01A7
:10505000280F20930E01121614F491311CF0819543
:1050600080930D01DF91CF911F910F910895A0E0E2
:10507000B0E0EDE3F8E20C946736FC01828180FF3A
:1050800003C0DD24DA9402C0DD24D39400E013E0F1
:10509000C0E0D0E022E1B22EF8011182108212822B
:1050A00094E0E92EF12CC12C8091FD028C0D83310E
:1050B0002CF06B2D0E940C36892F02C087FD8E5E6E
:1050C000082E000C990BC817D90791F4809193030F
:1050D0008E9DA0018F9D500D112455954795559596
:1050E0004795980160919203809191030E94CC3082
:1050F000CD0CF1E0EF1AF108B9F621960D5F1F4FC4
:10510000C231D10549F60E9405308091FD0291E03F
:10511000D91206C0811102C081E107C0815005C0CB
:1051200090E00196BE010E942E368093FD02CDB71D
:10513000DEB7E9E00C948336EF92FF921F93CF9392
:10514000DF93EC0180E0E82E83E0F82E10E08C8104
:1051500097014091930360919203810F0E94CC309C
:10516000125F83E0E80EF11C1C3F89F70E940530B6
:105170009A818C8190FF02C08F5F01C081508C8327
:10518000DF91CF911F91FF90EF900895A3E0B0E0E1
:10519000ECECF8E20C946C368C018091FF028111EA
:1051A0000AC09E012F5F3F4F4FEF6FEF0E94CC3040
:1051B0008A818093FF02F8018481813051F028F0C8
:1051C000823061F44091FF020AC08091FF0240E00A
:1051D00007C06091FF0240E080E003C040E080E053
:1051E00060E00E943B30F801848190E0019663E02A
:1051F00070E00E942E3684832396E4E00C94883677
:10520000CF93DF93EC01E0E9F3E0438162818C818D
:105210000E9458318C818F5F8C83DF91CF910895EC
:10522000CF93DF93EC01EC81F0E0E052F84F449132
:10523000E0E9F3E0628181810E9458318C818F5FC7
:105240008C83DF91CF9108950F931F93CF93DF93BA
:105250000DEB13E0C9EDD1E0CE010E943535F80128
:1052600061918F01681719F0CE010E94593521967E
:10527000CD3FF1E0DF0781F7DF91CF911F910F91D3
:105280000895A6E0B0E0E7E4F9E20C946E3690935E
:105290009A0380939903811520E2920718F40E94E3
:1052A0009C3410C080EF89838A830E949F2C816088
:1052B000682F9C838B8349815A817C8181E090E0B7
:1052C0000E94C3332696E2E00C948A36A6E0B0E052
:1052D000ECE6F9E20C946E3690939A03809399036E
:1052E000811520E2920718F40E94B63410C080EFB6
:1052F00089838A830E949F2C8160682F9C838B8383
:1053000049815A817C8181E091E00E94C3332696D5
:10531000E2E00C948A3688E290E00E9459350895C4
:10532000CF93C82F811102C06FEF01C067E485E2FF
:1053300090E00E945935C11102C06FEF01C06BEEC1
:1053400086E290E00E945935C11102C06FEF01C0A2
:1053500064EF87E290E00E945935CF91089580E094
:105360000E94902960E070E0CB010E948B290E948E
:10537000C02F0E94F12D81E00E949029089585E2BE
:1053800090E00E943535873481F486E290E00E94F7
:1053900035358B3E51F487E290E00E94353591E03F
:1053A000843F09F090E0892F01C080E0817008956A
:1053B000A0E0B0E0EEEDF9E20C946436863030F413
:1053C000811105C0909180009F7D04C085E090917F
:1053D0008000906290938000A0918600B091870039
:1053E000282F30E00E94E13525E030E040E050E039
:1053F0000E94BF350027122F232F342F012F122F89
:10540000232F332780918600909187006CE070E015
:105410000E941A366017710730F0C80169E070E029
:105420000E941A365EC08091860090918700E090BD
:105430008600F0908700E0918600F0918700C6E03A
:10544000D0E0BE010E941A36060F171F211D311D24
:105450004801590185E0880C991CAA1CBB1C8A953F
:10546000D1F7C701BE010E941A366F01E12CF12C61
:10547000A7019601260F371F411D511DC501B4011B
:105480000E94BF3569017A01E0918600F0918700A2
:10549000CA01B9010E94F0359B01AC01DF010E94F5
:1054A000AC359B01AC01C701B6010E94F035DC01AF
:1054B000CB012FE0B695A795979587952A95D1F7BB
:1054C000009186001091870020E030E0081719074E
:1054D0002A073B0728F46091860070918700CB0172
:1054E000BC0170938B0060938A00CDB7DEB7ECE00F
:1054F0000C948036682F86E090E00E94593508951C
:10550000863008F085E0909198039770282F220F3D
:10551000220F220F922B90939803987F21E009F499
:1055200020E09091980320FB90F9909398030E94BB
:10553000D82908950E944E2481110AC00E945A243D
:105540008091980384708962809398030E947A2ADC
:1055500086E090E00E94353580939803282F2695A9
:105560002695269530E02630310524F08770886234
:10557000809398038091980380FF04C08695869558
:10558000869501C080E00E94D829089590919003EB
:1055900090FF04C09695981748F003C0811106C08B
:1055A00090E0961718F40E948A32089561E00E94F4
:1055B00036320895882311F0FA0101C0FB010995E4
:1055C0000895809118020895A0E0B0E0EAEEFAE2B2
:1055D0000C9466364430510508F46CC040911402B6
:1055E00041FBCC24C0F8D12CCC0CDD1C42FB88271D
:1055F00080F9C82FE0E0DE2FCC0FDD1FCC0FDD1FC0
:10560000CC2ADD2A40FBEE24E0F8F12CEC28FD2822
:1056100043FBAA27A0F9B0E023E0AA0FBB1F2A95FD
:10562000E1F7EA2AFB2A44FBEE27E0F9F0E034E058
:10563000EE0FFF1F3A95E1F7EE29FF2945FB2227E0
:1056400020F930E055E0220F331F5A95E1F72E2B59
:105650003F2B46FB882780F990E0E6E0880F991FF2
:10566000EA95E1F7822B932B47FB442740F950E062
:105670005695542F442757954795842B952B209169
:105680001502322F3170132F00E0082B192B2695AD
:105690002170B22EBB0CA12C0A291B29012E000C53
:1056A000220B330BFB01008311832283338380E0C1
:1056B00090E002C08FEF9FEFCDB7DEB7EAE00C9429
:1056C0008236CF92DF92EF92FF924430510508F478
:1056D00071C0FB01C080D180E280F3800E94BE1EB9
:1056E00080911402C0FA80F9B701A60176956795FA
:1056F0005795479540FB81F9B701A60122E07695C1
:105700006795579547952A95D1F740FB82F9B701E0
:10571000A60133E076956795579547953A95D1F769
:1057200040FB83F9B701A601E4E0769567955795AC
:105730004795EA95D1F740FB84F9B701A601F5E05A
:105740007695679557954795FA95D1F740FB85F97A
:10575000B701A601A6E07695679557954795AA9556
:10576000D1F740FB86F9B701A601B7E076956795BA
:1057700057954795BA95D1F740FB87F98093140266
:1057800080911502D0FA80F999E0F694E794D794C5
:10579000C7949A95D1F7C0FA81F980931502609168
:1057A00014027091150284E090E00E94773580E049
:1057B00090E002C08FEF9FEFFF90EF90DF90CF90CF
:1057C0000895DA019C012E5F3F4FF90145915491F4
:1057D000F90125913491A217B30758F0FC013496D2
:1057E000859194910E94E6360E94242980E090E001
:1057F00008958FEF9FEF08950F931F93CF93DF933B
:105800008B01EA0190913B02943079F58F7080937F
:10581000E9008FEF9091E800815095FD06C095ED6D
:105820009A95F1F700008111F5CF8091E80085FF8E
:105830001CC00E94D71B882361F08091E8008E77FE
:105840008093E80012C0F80181918F018093F100EC
:105850002197209791F38091E80085FDF4CF809106
:10586000E8008E778093E800E4CFDF91CF911F911D
:105870000F91089581E08093E00080E28093D8004A
:105880001092C9008FE19EE40197F1F700C000007B
:1058900087E090EBDC018093080490930904A093C7
:1058A0000A04B0930B049CE088E10FB6F894A89525
:1058B000809360000FBE90936000FFCF78941F929A
:1058C0000F920FB60F9211248F939F93AF93BF93B4
:1058D0008091EF039091F003A091F103B091F20356
:1058E0000196A11DB11D8093EF039093F003A09347
:1058F000F103B093F203BF91AF919F918F910F90FD
:105900000FBE0F901F9018959C014FB7F89480918F
:10591000EF039091F003A091F103B091F2034FBF18
:10592000821B930B08952FB7F8946091EF03709149
:10593000F0038091F1039091F2032FBF08952FB7E8
:10594000F8948091EF039091F003A091F103B0914E
:10595000F2032FBF08951F920F920FB60F921124DA
:105960008F939F93AF93BF938091EE03811113C0E8
:105970008091EF039091F003A091F103B091F203B5
:105980004196A11DB11D8093EF039093F003A09366
:10599000F103B093F203BF91AF919F918F910F905C
:1059A0000FBE0F901F90189520910C012223C9F073
:1059B0002091140227FF15C0262F2695269526959F
:1059C0002E31C8F4FC01E20FF11D677081E090E018
:1059D00001C0880F6A95EAF78095928189238283B6
:1059E0000895FC0106962281621301C0128231964D
:1059F000E817F907C1F7089520910C012223C1F09F
:105A00002091140227FF14C0262F2695269526954F
:105A10002E3130F5FC01E20FF11D677081E090E05E
:105A200001C0880F6A95EAF79281892B82830895D5
:105A3000FC0132962FEF30E04191641789F02F3F3F
:105A400019F4411101C0232F3F5F3630A9F72F3FD2
:105A500039F0FC01E20FF11D27FDFA9562830895EC
:105A60000895A3E0B0E0E7E3FDE20C946E362091E8
:105A7000EC033091ED0328173907A1F09093ED0363
:105A80008093EC03E091EA03F091EB03309751F03F
:105A900024E029839B838A830680F781E02DCE0151
:105AA000019609952396E2E00C948A36A3E0B0E0D3
:105AB000ECE5FDE20C946E362091E8033091E903A9
:105AC00028173907A1F09093E9038093E803E09148
:105AD000EA03F091EB03309751F023E029839B8395
